{
  "_format": "hh-sol-artifact-1",
  "contractName": "Nusic",
  "sourceName": "contracts/governance/Nusic.sol",
  "abi": [
    {
      "inputs": [
        {
          "internalType": "string",
          "name": "_name",
          "type": "string"
        },
        {
          "internalType": "string",
          "name": "_symbol",
          "type": "string"
        },
        {
          "internalType": "string",
          "name": "_defaultURI",
          "type": "string"
        }
      ],
      "stateMutability": "nonpayable",
      "type": "constructor"
    },
    {
      "anonymous": false,
      "inputs": [
        {
          "indexed": true,
          "internalType": "address",
          "name": "owner",
          "type": "address"
        },
        {
          "indexed": true,
          "internalType": "address",
          "name": "approved",
          "type": "address"
        },
        {
          "indexed": true,
          "internalType": "uint256",
          "name": "tokenId",
          "type": "uint256"
        }
      ],
      "name": "Approval",
      "type": "event"
    },
    {
      "anonymous": false,
      "inputs": [
        {
          "indexed": true,
          "internalType": "address",
          "name": "owner",
          "type": "address"
        },
        {
          "indexed": true,
          "internalType": "address",
          "name": "operator",
          "type": "address"
        },
        {
          "indexed": false,
          "internalType": "bool",
          "name": "approved",
          "type": "bool"
        }
      ],
      "name": "ApprovalForAll",
      "type": "event"
    },
    {
      "anonymous": false,
      "inputs": [
        {
          "indexed": true,
          "internalType": "address",
          "name": "delegator",
          "type": "address"
        },
        {
          "indexed": true,
          "internalType": "address",
          "name": "fromDelegate",
          "type": "address"
        },
        {
          "indexed": true,
          "internalType": "address",
          "name": "toDelegate",
          "type": "address"
        }
      ],
      "name": "DelegateChanged",
      "type": "event"
    },
    {
      "anonymous": false,
      "inputs": [
        {
          "indexed": true,
          "internalType": "address",
          "name": "delegate",
          "type": "address"
        },
        {
          "indexed": false,
          "internalType": "uint256",
          "name": "previousBalance",
          "type": "uint256"
        },
        {
          "indexed": false,
          "internalType": "uint256",
          "name": "newBalance",
          "type": "uint256"
        }
      ],
      "name": "DelegateVotesChanged",
      "type": "event"
    },
    {
      "anonymous": false,
      "inputs": [
        {
          "indexed": true,
          "internalType": "address",
          "name": "previousOwner",
          "type": "address"
        },
        {
          "indexed": true,
          "internalType": "address",
          "name": "newOwner",
          "type": "address"
        }
      ],
      "name": "OwnershipTransferred",
      "type": "event"
    },
    {
      "anonymous": false,
      "inputs": [
        {
          "indexed": true,
          "internalType": "address",
          "name": "to",
          "type": "address"
        },
        {
          "indexed": false,
          "internalType": "uint256",
          "name": "tokenQuantity",
          "type": "uint256"
        }
      ],
      "name": "PreSeedMinted",
      "type": "event"
    },
    {
      "anonymous": false,
      "inputs": [
        {
          "indexed": true,
          "internalType": "address",
          "name": "to",
          "type": "address"
        },
        {
          "indexed": false,
          "internalType": "uint256",
          "name": "tokenQuantity",
          "type": "uint256"
        },
        {
          "indexed": false,
          "internalType": "uint256",
          "name": "round",
          "type": "uint256"
        }
      ],
      "name": "PublicTransferMinted",
      "type": "event"
    },
    {
      "anonymous": false,
      "inputs": [
        {
          "indexed": true,
          "internalType": "address",
          "name": "to",
          "type": "address"
        },
        {
          "indexed": false,
          "internalType": "uint256",
          "name": "tokenQuantity",
          "type": "uint256"
        },
        {
          "indexed": false,
          "internalType": "uint256",
          "name": "amountTransfered",
          "type": "uint256"
        },
        {
          "indexed": false,
          "internalType": "uint256",
          "name": "round",
          "type": "uint256"
        }
      ],
      "name": "Stage1Minted",
      "type": "event"
    },
    {
      "anonymous": false,
      "inputs": [
        {
          "indexed": true,
          "internalType": "address",
          "name": "from",
          "type": "address"
        },
        {
          "indexed": true,
          "internalType": "address",
          "name": "to",
          "type": "address"
        },
        {
          "indexed": true,
          "internalType": "uint256",
          "name": "tokenId",
          "type": "uint256"
        }
      ],
      "name": "Transfer",
      "type": "event"
    },
    {
      "anonymous": false,
      "inputs": [
        {
          "indexed": true,
          "internalType": "address",
          "name": "to",
          "type": "address"
        },
        {
          "indexed": false,
          "internalType": "uint256",
          "name": "tokenQuantity",
          "type": "uint256"
        },
        {
          "indexed": false,
          "internalType": "uint256",
          "name": "round",
          "type": "uint256"
        }
      ],
      "name": "TreasuryClaimed",
      "type": "event"
    },
    {
      "inputs": [],
      "name": "DELEGATION_TYPEHASH",
      "outputs": [
        {
          "internalType": "bytes32",
          "name": "",
          "type": "bytes32"
        }
      ],
      "stateMutability": "view",
      "type": "function"
    },
    {
      "inputs": [],
      "name": "DOMAIN_TYPEHASH",
      "outputs": [
        {
          "internalType": "bytes32",
          "name": "",
          "type": "bytes32"
        }
      ],
      "stateMutability": "view",
      "type": "function"
    },
    {
      "inputs": [],
      "name": "MAX_PRE_SEED_SUPPLY",
      "outputs": [
        {
          "internalType": "uint256",
          "name": "",
          "type": "uint256"
        }
      ],
      "stateMutability": "view",
      "type": "function"
    },
    {
      "inputs": [],
      "name": "MAX_SUPPLY",
      "outputs": [
        {
          "internalType": "uint256",
          "name": "",
          "type": "uint256"
        }
      ],
      "stateMutability": "view",
      "type": "function"
    },
    {
      "inputs": [],
      "name": "MINT_PER_ADDR",
      "outputs": [
        {
          "internalType": "uint256",
          "name": "",
          "type": "uint256"
        }
      ],
      "stateMutability": "view",
      "type": "function"
    },
    {
      "inputs": [],
      "name": "MINT_PER_TXT",
      "outputs": [
        {
          "internalType": "uint256",
          "name": "",
          "type": "uint256"
        }
      ],
      "stateMutability": "view",
      "type": "function"
    },
    {
      "inputs": [],
      "name": "STAGE1_MAX_SUPPLY",
      "outputs": [
        {
          "internalType": "uint256",
          "name": "",
          "type": "uint256"
        }
      ],
      "stateMutability": "view",
      "type": "function"
    },
    {
      "inputs": [],
      "name": "activateCurrentRound",
      "outputs": [],
      "stateMutability": "nonpayable",
      "type": "function"
    },
    {
      "inputs": [
        {
          "internalType": "uint256",
          "name": "roundNumber",
          "type": "uint256"
        }
      ],
      "name": "activateRound",
      "outputs": [],
      "stateMutability": "nonpayable",
      "type": "function"
    },
    {
      "inputs": [
        {
          "internalType": "address[]",
          "name": "addressList",
          "type": "address[]"
        }
      ],
      "name": "addToWhitelist",
      "outputs": [],
      "stateMutability": "nonpayable",
      "type": "function"
    },
    {
      "inputs": [
        {
          "internalType": "address",
          "name": "to",
          "type": "address"
        },
        {
          "internalType": "uint256",
          "name": "tokenId",
          "type": "uint256"
        }
      ],
      "name": "approve",
      "outputs": [],
      "stateMutability": "nonpayable",
      "type": "function"
    },
    {
      "inputs": [
        {
          "internalType": "address",
          "name": "owner",
          "type": "address"
        }
      ],
      "name": "balanceOf",
      "outputs": [
        {
          "internalType": "uint256",
          "name": "",
          "type": "uint256"
        }
      ],
      "stateMutability": "view",
      "type": "function"
    },
    {
      "inputs": [],
      "name": "baseURI",
      "outputs": [
        {
          "internalType": "string",
          "name": "",
          "type": "string"
        }
      ],
      "stateMutability": "view",
      "type": "function"
    },
    {
      "inputs": [
        {
          "internalType": "address",
          "name": "",
          "type": "address"
        },
        {
          "internalType": "uint32",
          "name": "",
          "type": "uint32"
        }
      ],
      "name": "checkpoints",
      "outputs": [
        {
          "internalType": "uint256",
          "name": "fromBlock",
          "type": "uint256"
        },
        {
          "internalType": "uint256",
          "name": "votes",
          "type": "uint256"
        }
      ],
      "stateMutability": "view",
      "type": "function"
    },
    {
      "inputs": [],
      "name": "deactivateCurrentRound",
      "outputs": [],
      "stateMutability": "nonpayable",
      "type": "function"
    },
    {
      "inputs": [],
      "name": "defaultURI",
      "outputs": [
        {
          "internalType": "string",
          "name": "",
          "type": "string"
        }
      ],
      "stateMutability": "view",
      "type": "function"
    },
    {
      "inputs": [
        {
          "internalType": "address",
          "name": "delegatee",
          "type": "address"
        }
      ],
      "name": "delegate",
      "outputs": [],
      "stateMutability": "nonpayable",
      "type": "function"
    },
    {
      "inputs": [
        {
          "internalType": "address",
          "name": "delegatee",
          "type": "address"
        },
        {
          "internalType": "uint256",
          "name": "nonce",
          "type": "uint256"
        },
        {
          "internalType": "uint256",
          "name": "expiry",
          "type": "uint256"
        },
        {
          "internalType": "uint8",
          "name": "v",
          "type": "uint8"
        },
        {
          "internalType": "bytes32",
          "name": "r",
          "type": "bytes32"
        },
        {
          "internalType": "bytes32",
          "name": "s",
          "type": "bytes32"
        }
      ],
      "name": "delegateBySig",
      "outputs": [],
      "stateMutability": "nonpayable",
      "type": "function"
    },
    {
      "inputs": [
        {
          "internalType": "address",
          "name": "",
          "type": "address"
        }
      ],
      "name": "delegates",
      "outputs": [
        {
          "internalType": "address",
          "name": "",
          "type": "address"
        }
      ],
      "stateMutability": "view",
      "type": "function"
    },
    {
      "inputs": [
        {
          "internalType": "uint256",
          "name": "tokenId",
          "type": "uint256"
        }
      ],
      "name": "getApproved",
      "outputs": [
        {
          "internalType": "address",
          "name": "",
          "type": "address"
        }
      ],
      "stateMutability": "view",
      "type": "function"
    },
    {
      "inputs": [
        {
          "internalType": "address",
          "name": "account",
          "type": "address"
        }
      ],
      "name": "getCurrentVotes",
      "outputs": [
        {
          "internalType": "uint256",
          "name": "",
          "type": "uint256"
        }
      ],
      "stateMutability": "view",
      "type": "function"
    },
    {
      "inputs": [
        {
          "internalType": "address",
          "name": "account",
          "type": "address"
        },
        {
          "internalType": "uint256",
          "name": "blockNumber",
          "type": "uint256"
        }
      ],
      "name": "getPriorVotes",
      "outputs": [
        {
          "internalType": "uint256",
          "name": "",
          "type": "uint256"
        }
      ],
      "stateMutability": "view",
      "type": "function"
    },
    {
      "inputs": [
        {
          "internalType": "address",
          "name": "owner",
          "type": "address"
        },
        {
          "internalType": "address",
          "name": "operator",
          "type": "address"
        }
      ],
      "name": "isApprovedForAll",
      "outputs": [
        {
          "internalType": "bool",
          "name": "",
          "type": "bool"
        }
      ],
      "stateMutability": "view",
      "type": "function"
    },
    {
      "inputs": [],
      "name": "name",
      "outputs": [
        {
          "internalType": "string",
          "name": "",
          "type": "string"
        }
      ],
      "stateMutability": "view",
      "type": "function"
    },
    {
      "inputs": [
        {
          "internalType": "address",
          "name": "",
          "type": "address"
        }
      ],
      "name": "numCheckpoints",
      "outputs": [
        {
          "internalType": "uint32",
          "name": "",
          "type": "uint32"
        }
      ],
      "stateMutability": "view",
      "type": "function"
    },
    {
      "inputs": [],
      "name": "owner",
      "outputs": [
        {
          "internalType": "address",
          "name": "",
          "type": "address"
        }
      ],
      "stateMutability": "view",
      "type": "function"
    },
    {
      "inputs": [
        {
          "internalType": "uint256",
          "name": "tokenId",
          "type": "uint256"
        }
      ],
      "name": "ownerOf",
      "outputs": [
        {
          "internalType": "address",
          "name": "",
          "type": "address"
        }
      ],
      "stateMutability": "view",
      "type": "function"
    },
    {
      "inputs": [
        {
          "internalType": "uint256",
          "name": "tokenQuantity",
          "type": "uint256"
        },
        {
          "internalType": "address",
          "name": "to",
          "type": "address"
        }
      ],
      "name": "preSeedMint",
      "outputs": [],
      "stateMutability": "nonpayable",
      "type": "function"
    },
    {
      "inputs": [],
      "name": "preSeedMinted",
      "outputs": [
        {
          "internalType": "uint256",
          "name": "",
          "type": "uint256"
        }
      ],
      "stateMutability": "view",
      "type": "function"
    },
    {
      "inputs": [],
      "name": "price",
      "outputs": [
        {
          "internalType": "uint256",
          "name": "",
          "type": "uint256"
        }
      ],
      "stateMutability": "view",
      "type": "function"
    },
    {
      "inputs": [
        {
          "internalType": "uint256",
          "name": "tokenQuantity",
          "type": "uint256"
        },
        {
          "internalType": "address",
          "name": "to",
          "type": "address"
        }
      ],
      "name": "publicAuctionTransfer",
      "outputs": [],
      "stateMutability": "nonpayable",
      "type": "function"
    },
    {
      "inputs": [],
      "name": "publicMintingAllowed",
      "outputs": [
        {
          "internalType": "bool",
          "name": "",
          "type": "bool"
        }
      ],
      "stateMutability": "view",
      "type": "function"
    },
    {
      "inputs": [
        {
          "internalType": "address",
          "name": "",
          "type": "address"
        }
      ],
      "name": "publicSaleWhitelist",
      "outputs": [
        {
          "internalType": "bool",
          "name": "",
          "type": "bool"
        }
      ],
      "stateMutability": "view",
      "type": "function"
    },
    {
      "inputs": [
        {
          "internalType": "address[]",
          "name": "addressList",
          "type": "address[]"
        }
      ],
      "name": "removeFromWhitelist",
      "outputs": [],
      "stateMutability": "nonpayable",
      "type": "function"
    },
    {
      "inputs": [],
      "name": "renounceOwnership",
      "outputs": [],
      "stateMutability": "nonpayable",
      "type": "function"
    },
    {
      "inputs": [
        {
          "internalType": "address",
          "name": "from",
          "type": "address"
        },
        {
          "internalType": "address",
          "name": "to",
          "type": "address"
        },
        {
          "internalType": "uint256",
          "name": "tokenId",
          "type": "uint256"
        }
      ],
      "name": "safeTransferFrom",
      "outputs": [],
      "stateMutability": "nonpayable",
      "type": "function"
    },
    {
      "inputs": [
        {
          "internalType": "address",
          "name": "from",
          "type": "address"
        },
        {
          "internalType": "address",
          "name": "to",
          "type": "address"
        },
        {
          "internalType": "uint256",
          "name": "tokenId",
          "type": "uint256"
        },
        {
          "internalType": "bytes",
          "name": "_data",
          "type": "bytes"
        }
      ],
      "name": "safeTransferFrom",
      "outputs": [],
      "stateMutability": "nonpayable",
      "type": "function"
    },
    {
      "inputs": [
        {
          "internalType": "address",
          "name": "operator",
          "type": "address"
        },
        {
          "internalType": "bool",
          "name": "approved",
          "type": "bool"
        }
      ],
      "name": "setApprovalForAll",
      "outputs": [],
      "stateMutability": "nonpayable",
      "type": "function"
    },
    {
      "inputs": [
        {
          "internalType": "string",
          "name": "uri",
          "type": "string"
        }
      ],
      "name": "setBaseURI",
      "outputs": [],
      "stateMutability": "nonpayable",
      "type": "function"
    },
    {
      "inputs": [
        {
          "internalType": "string",
          "name": "_defaultURI",
          "type": "string"
        }
      ],
      "name": "setDefaultRI",
      "outputs": [],
      "stateMutability": "nonpayable",
      "type": "function"
    },
    {
      "inputs": [
        {
          "internalType": "uint256",
          "name": "newPrice",
          "type": "uint256"
        }
      ],
      "name": "setPrice",
      "outputs": [],
      "stateMutability": "nonpayable",
      "type": "function"
    },
    {
      "inputs": [
        {
          "internalType": "address",
          "name": "newTreasuryAddress",
          "type": "address"
        }
      ],
      "name": "setTreasuryAddress",
      "outputs": [],
      "stateMutability": "nonpayable",
      "type": "function"
    },
    {
      "inputs": [
        {
          "internalType": "uint256",
          "name": "tokenQuantity",
          "type": "uint256"
        }
      ],
      "name": "stage1Mint",
      "outputs": [],
      "stateMutability": "payable",
      "type": "function"
    },
    {
      "inputs": [
        {
          "internalType": "uint256",
          "name": "",
          "type": "uint256"
        }
      ],
      "name": "stage1Rounds",
      "outputs": [
        {
          "internalType": "uint256",
          "name": "roundNumber",
          "type": "uint256"
        },
        {
          "internalType": "uint256",
          "name": "totalSupplyBeforeCurrentRound",
          "type": "uint256"
        },
        {
          "internalType": "uint256",
          "name": "maxSupplyForRound",
          "type": "uint256"
        },
        {
          "internalType": "uint256",
          "name": "minted",
          "type": "uint256"
        },
        {
          "internalType": "uint256",
          "name": "maxTreasuryShare",
          "type": "uint256"
        },
        {
          "internalType": "uint256",
          "name": "treasuryClaimed",
          "type": "uint256"
        },
        {
          "internalType": "bool",
          "name": "isActive",
          "type": "bool"
        }
      ],
      "stateMutability": "view",
      "type": "function"
    },
    {
      "inputs": [
        {
          "internalType": "bytes4",
          "name": "interfaceId",
          "type": "bytes4"
        }
      ],
      "name": "supportsInterface",
      "outputs": [
        {
          "internalType": "bool",
          "name": "",
          "type": "bool"
        }
      ],
      "stateMutability": "view",
      "type": "function"
    },
    {
      "inputs": [],
      "name": "symbol",
      "outputs": [
        {
          "internalType": "string",
          "name": "",
          "type": "string"
        }
      ],
      "stateMutability": "view",
      "type": "function"
    },
    {
      "inputs": [],
      "name": "togglePublicMinting",
      "outputs": [],
      "stateMutability": "nonpayable",
      "type": "function"
    },
    {
      "inputs": [],
      "name": "toggleVerifyWhitelist",
      "outputs": [],
      "stateMutability": "nonpayable",
      "type": "function"
    },
    {
      "inputs": [
        {
          "internalType": "uint256",
          "name": "index",
          "type": "uint256"
        }
      ],
      "name": "tokenByIndex",
      "outputs": [
        {
          "internalType": "uint256",
          "name": "",
          "type": "uint256"
        }
      ],
      "stateMutability": "view",
      "type": "function"
    },
    {
      "inputs": [
        {
          "internalType": "address",
          "name": "owner",
          "type": "address"
        },
        {
          "internalType": "uint256",
          "name": "index",
          "type": "uint256"
        }
      ],
      "name": "tokenOfOwnerByIndex",
      "outputs": [
        {
          "internalType": "uint256",
          "name": "",
          "type": "uint256"
        }
      ],
      "stateMutability": "view",
      "type": "function"
    },
    {
      "inputs": [
        {
          "internalType": "uint256",
          "name": "tokenId",
          "type": "uint256"
        }
      ],
      "name": "tokenURI",
      "outputs": [
        {
          "internalType": "string",
          "name": "",
          "type": "string"
        }
      ],
      "stateMutability": "view",
      "type": "function"
    },
    {
      "inputs": [],
      "name": "totalMinted",
      "outputs": [
        {
          "internalType": "uint256",
          "name": "",
          "type": "uint256"
        }
      ],
      "stateMutability": "view",
      "type": "function"
    },
    {
      "inputs": [],
      "name": "totalSupply",
      "outputs": [
        {
          "internalType": "uint256",
          "name": "",
          "type": "uint256"
        }
      ],
      "stateMutability": "view",
      "type": "function"
    },
    {
      "inputs": [
        {
          "internalType": "address",
          "name": "from",
          "type": "address"
        },
        {
          "internalType": "address",
          "name": "to",
          "type": "address"
        },
        {
          "internalType": "uint256",
          "name": "tokenId",
          "type": "uint256"
        }
      ],
      "name": "transferFrom",
      "outputs": [],
      "stateMutability": "nonpayable",
      "type": "function"
    },
    {
      "inputs": [
        {
          "internalType": "address",
          "name": "newOwner",
          "type": "address"
        }
      ],
      "name": "transferOwnership",
      "outputs": [],
      "stateMutability": "nonpayable",
      "type": "function"
    },
    {
      "inputs": [],
      "name": "treasuryAddress",
      "outputs": [
        {
          "internalType": "address",
          "name": "",
          "type": "address"
        }
      ],
      "stateMutability": "view",
      "type": "function"
    },
    {
      "inputs": [
        {
          "internalType": "uint256",
          "name": "tokenQuantity",
          "type": "uint256"
        }
      ],
      "name": "treasuryClaim",
      "outputs": [],
      "stateMutability": "nonpayable",
      "type": "function"
    },
    {
      "inputs": [],
      "name": "verifyWhitelist",
      "outputs": [
        {
          "internalType": "bool",
          "name": "",
          "type": "bool"
        }
      ],
      "stateMutability": "view",
      "type": "function"
    },
    {
      "inputs": [],
      "name": "withdraw",
      "outputs": [],
      "stateMutability": "nonpayable",
      "type": "function"
    }
  ],
  "bytecode": "0x6080604052600b80546001600160a01b0319169055668e1bc9bf040000600c5560196010556011805461ffff191690553480156200003c57600080fd5b5060405162004ccf38038062004ccf8339810160408190526200005f9162000487565b825183908390620000789060009060208501906200032e565b5080516200008e9060019060208401906200032e565b505050620000ab620000a5620002d860201b60201c565b620002dc565b8051620000c090600d9060208401906200032e565b506040518060e0016040528060018152602001600081526020016064815260200160008152602001607d815260200160008152602001600015158152506013600060018152602001908152602001600020600082015181600001556020820151816001015560408201518160020155606082015181600301556080820151816004015560a0820151816005015560c08201518160060160006101000a81548160ff0219169083151502179055509050506040518060e001604052806002815260200160fa8152602001607d815260200160008152602001607d815260200160008152602001600015158152506013600060028152602001908152602001600020600082015181600001556020820151816001015560408201518160020155606082015181600301556080820151816004015560a0820151816005015560c08201518160060160006101000a81548160ff0219169083151502179055509050506040518060e00160405280600381526020016101f4815260200160fa81526020016000815260200160fa815260200160008152602001600015158152506013600060038152602001908152602001600020600082015181600001556020820151816001015560408201518160020155606082015181600301556080820151816004015560a0820151816005015560c08201518160060160006101000a81548160ff02191690831515021790555090505050505062000567565b3390565b600a80546001600160a01b038381166001600160a01b0319831681179093556040519116919082907f8be0079c531659141344cd1fd0a4f28419497f9722a3daafe3b4186f6b6457e090600090a35050565b8280546200033c9062000514565b90600052602060002090601f016020900481019282620003605760008555620003ab565b82601f106200037b57805160ff1916838001178555620003ab565b82800160010185558215620003ab579182015b82811115620003ab5782518255916020019190600101906200038e565b50620003b9929150620003bd565b5090565b5b80821115620003b95760008155600101620003be565b600082601f830112620003e5578081fd5b81516001600160401b038082111562000402576200040262000551565b604051601f8301601f19908116603f011681019082821181831017156200042d576200042d62000551565b8160405283815260209250868385880101111562000449578485fd5b8491505b838210156200046c57858201830151818301840152908201906200044d565b838211156200047d57848385830101525b9695505050505050565b6000806000606084860312156200049c578283fd5b83516001600160401b0380821115620004b3578485fd5b620004c187838801620003d4565b94506020860151915080821115620004d7578384fd5b620004e587838801620003d4565b93506040860151915080821115620004fb578283fd5b506200050a86828701620003d4565b9150509250925092565b600181811c908216806200052957607f821691505b602082108114156200054b57634e487b7160e01b600052602260045260246000fd5b50919050565b634e487b7160e01b600052604160045260246000fd5b61475880620005776000396000f3fe60806040526004361061038b5760003560e01c80636fcfff45116101dc578063a7afc1ca11610102578063ca1cc82c116100a0578063e985e9c51161006f578063e985e9c514610ac2578063ef4c1bb314610b0b578063f1127ed814610b25578063f2fde38b14610b7957600080fd5b8063ca1cc82c14610a42578063e0e5722314610a58578063e7a324dc14610a6e578063e847fbe414610aa257600080fd5b8063ba845f13116100dc578063ba845f13146109cd578063c3cda520146109e2578063c5f956af14610a02578063c87b56dd14610a2257600080fd5b8063a7afc1ca14610978578063b4b5ea571461098d578063b88d4fde146109ad57600080fd5b80638c190b9f1161017a5780639f6d4f30116101495780639f6d4f3014610917578063a035b1fe1461092c578063a22cb46514610942578063a2309ff81461096257600080fd5b80638c190b9f146108945780638da5cb5b146108c457806391b7f5ed146108e257806395d89b411461090257600080fd5b8063782d6fe1116101b6578063782d6fe1146107af5780637f649783146107cf578063825de5af146107ef5780638a83dccb1461088157600080fd5b80636fcfff451461073257806370a082311461077a578063715018a61461079a57600080fd5b806342842e0e116102c15780635a633a9f1161025f5780636605bfda1161022e5780636605bfda146106d357806369e9f8a8146106f35780636b8a21fc146107085780636c0360eb1461071d57600080fd5b80635a633a9f1461065e5780635c19a95c1461067e578063610f01351461069e5780636352211e146106b357600080fd5b8063548db1741161029b578063548db174146105d357806355f804b3146105f357806356e610ac14610613578063587cde1e1461062857600080fd5b806342842e0e146105735780634dab4924146105935780634f6ccce7146105b357600080fd5b806318160ddd1161032e5780632f745c59116103085780632f745c591461051357806332cb6b0c146105335780633a367a67146105495780633ccfd60b1461055e57600080fd5b806318160ddd146104a057806320606b70146104bf57806323b872dd146104f357600080fd5b8063081812fc1161036a578063081812fc14610406578063095ea7b31461043e5780630d86332f1461046057806314743e7e1461048057600080fd5b8062f78d941461039057806301ffc9a7146103c457806306fdde03146103e4575b600080fd5b34801561039c57600080fd5b506011546103af90610100900460ff1681565b60405190151581526020015b60405180910390f35b3480156103d057600080fd5b506103af6103df3660046142f7565b610b99565b3480156103f057600080fd5b506103f9610bdd565b6040516103bb9190614505565b34801561041257600080fd5b50610426610421366004614375565b610c6f565b6040516001600160a01b0390911681526020016103bb565b34801561044a57600080fd5b5061045e61045936600461418e565b610d1a565b005b34801561046c57600080fd5b5061045e61047b36600461438d565b610e4c565b34801561048c57600080fd5b5061045e61049b366004614375565b61104b565b3480156104ac57600080fd5b506008545b6040519081526020016103bb565b3480156104cb57600080fd5b506104b17f8cad95687ba82c2ce50e74f7b754645e5117c3a5bec8151c0726d5857980a86681565b3480156104ff57600080fd5b5061045e61050e3660046140a0565b6111a0565b34801561051f57600080fd5b506104b161052e36600461418e565b611227565b34801561053f57600080fd5b506104b161271081565b34801561055557600080fd5b506103f96112cf565b34801561056a57600080fd5b5061045e61135d565b34801561057f57600080fd5b5061045e61058e3660046140a0565b611451565b34801561059f57600080fd5b5061045e6105ae36600461438d565b61146c565b3480156105bf57600080fd5b506104b16105ce366004614375565b6115a8565b3480156105df57600080fd5b5061045e6105ee366004614248565b61165a565b3480156105ff57600080fd5b5061045e61060e36600461432f565b611799565b34801561061f57600080fd5b506104b1601981565b34801561063457600080fd5b50610426610643366004614054565b6016602052600090815260409020546001600160a01b031681565b34801561066a57600080fd5b5061045e61067936600461432f565b6117f4565b34801561068a57600080fd5b5061045e610699366004614054565b61184f565b3480156106aa57600080fd5b506104b1600a81565b3480156106bf57600080fd5b506104266106ce366004614375565b61185c565b3480156106df57600080fd5b5061045e6106ee366004614054565b6118e7565b3480156106ff57600080fd5b5061045e6119b4565b34801561071457600080fd5b5061045e611a6e565b34801561072957600080fd5b506103f9611aca565b34801561073e57600080fd5b5061076561074d366004614054565b60186020526000908152604090205463ffffffff1681565b60405163ffffffff90911681526020016103bb565b34801561078657600080fd5b506104b1610795366004614054565b611ad7565b3480156107a657600080fd5b5061045e611b71565b3480156107bb57600080fd5b506104b16107ca36600461418e565b611bc5565b3480156107db57600080fd5b5061045e6107ea366004614248565b611e2d565b3480156107fb57600080fd5b5061084a61080a366004614375565b6013602052600090815260409020805460018201546002830154600384015460048501546005860154600690960154949593949293919290919060ff1687565b604080519788526020880196909652948601939093526060850191909152608084015260a0830152151560c082015260e0016103bb565b61045e61088f366004614375565b611f75565b3480156108a057600080fd5b506103af6108af366004614054565b60126020526000908152604090205460ff1681565b3480156108d057600080fd5b50600a546001600160a01b0316610426565b3480156108ee57600080fd5b5061045e6108fd366004614375565b6121a1565b34801561090e57600080fd5b506103f961223e565b34801561092357600080fd5b5061045e61224d565b34801561093857600080fd5b506104b1600c5481565b34801561094e57600080fd5b5061045e61095d366004614154565b6122b2565b34801561096e57600080fd5b506104b160105481565b34801561098457600080fd5b5061045e6122bd565b34801561099957600080fd5b506104b16109a8366004614054565b612323565b3480156109b957600080fd5b5061045e6109c83660046140db565b612398565b3480156109d957600080fd5b506104b1600581565b3480156109ee57600080fd5b5061045e6109fd3660046141b7565b612426565b348015610a0e57600080fd5b50600b54610426906001600160a01b031681565b348015610a2e57600080fd5b506103f9610a3d366004614375565b612757565b348015610a4e57600080fd5b506104b1600f5481565b348015610a6457600080fd5b506104b16103e881565b348015610a7a57600080fd5b506104b17fe48329057bfd03d55e49b547132e39cffd9c1820ad7b9d4c5307691425d15adf81565b348015610aae57600080fd5b5061045e610abd366004614375565b612895565b348015610ace57600080fd5b506103af610add36600461406e565b6001600160a01b03918216600090815260056020908152604080832093909416825291909152205460ff1690565b348015610b1757600080fd5b506011546103af9060ff1681565b348015610b3157600080fd5b50610b64610b40366004614215565b60176020908152600092835260408084209091529082529020805460019091015482565b604080519283526020830191909152016103bb565b348015610b8557600080fd5b5061045e610b94366004614054565b612bb3565b60006001600160e01b031982167f780e9d63000000000000000000000000000000000000000000000000000000001480610bd75750610bd782612c80565b92915050565b606060008054610bec90614647565b80601f0160208091040260200160405190810160405280929190818152602001828054610c1890614647565b8015610c655780601f10610c3a57610100808354040283529160200191610c65565b820191906000526020600020905b815481529060010190602001808311610c4857829003601f168201915b5050505050905090565b6000818152600260205260408120546001600160a01b0316610cfe5760405162461bcd60e51b815260206004820152602c60248201527f4552433732313a20617070726f76656420717565727920666f72206e6f6e657860448201527f697374656e7420746f6b656e000000000000000000000000000000000000000060648201526084015b60405180910390fd5b506000908152600460205260409020546001600160a01b031690565b6000610d258261185c565b9050806001600160a01b0316836001600160a01b03161415610daf5760405162461bcd60e51b815260206004820152602160248201527f4552433732313a20617070726f76616c20746f2063757272656e74206f776e6560448201527f72000000000000000000000000000000000000000000000000000000000000006064820152608401610cf5565b336001600160a01b0382161480610dcb5750610dcb8133610add565b610e3d5760405162461bcd60e51b815260206004820152603860248201527f4552433732313a20617070726f76652063616c6c6572206973206e6f74206f7760448201527f6e6572206e6f7220617070726f76656420666f7220616c6c00000000000000006064820152608401610cf5565b610e478383612d1b565b505050565b600a546001600160a01b03163314610e945760405162461bcd60e51b8152602060048201819052602482015260008051602061472c8339815191526044820152606401610cf5565b816005811115610ee65760405162461bcd60e51b815260206004820152601460248201527f4578636565642050657220547874206c696d69740000000000000000000000006044820152606401610cf5565b6001600160a01b038216610f3c5760405162461bcd60e51b815260206004820152601560248201527f4e554c4c20416464726573732050726f766964656400000000000000000000006044820152606401610cf5565b601983600f54610f4c9190614549565b1115610fc05760405162461bcd60e51b815260206004820152602260248201527f4d696e74696e672077696c6c206578636565642050726553656564207375707060448201527f6c790000000000000000000000000000000000000000000000000000000000006064820152608401610cf5565b60005b838161ffff16101561100257600f8054906000610fdf836146a4565b9190505550610ff083600f54612d96565b80610ffa81614682565b915050610fc3565b50816001600160a01b03167ff2157a4cb64d72e51384d316b203faab7fe03f978314cf2e325a8d1fdb09077d8460405161103e91815260200190565b60405180910390a2505050565b600a546001600160a01b031633146110935760405162461bcd60e51b8152602060048201819052602482015260008051602061472c8339815191526044820152606401610cf5565b6000811180156110a4575060038111155b6110e05760405162461bcd60e51b815260206004820152600d60248201526c125b9d985b1a5908149bdd5b99609a1b6044820152606401610cf5565b60008181526013602052604090206001015460085410156111435760405162461bcd60e51b815260206004820152601960248201527f50726576696f757320526f756e6420696e636f6d706c657465000000000000006044820152606401610cf5565b600181111561117f57600060138161115c6001856145df565b81526020810191909152604001600020600601805460ff19169115159190911790555b6000818152601360205260409020600601805460ff19166001179055601455565b6111aa3382612db0565b61121c5760405162461bcd60e51b815260206004820152603160248201527f4552433732313a207472616e736665722063616c6c6572206973206e6f74206f60448201527f776e6572206e6f7220617070726f7665640000000000000000000000000000006064820152608401610cf5565b610e47838383612eb8565b600061123283611ad7565b82106112a65760405162461bcd60e51b815260206004820152602b60248201527f455243373231456e756d657261626c653a206f776e657220696e646578206f7560448201527f74206f6620626f756e64730000000000000000000000000000000000000000006064820152608401610cf5565b506001600160a01b03919091166000908152600660209081526040808320938352929052205490565b600d80546112dc90614647565b80601f016020809104026020016040519081016040528092919081815260200182805461130890614647565b80156113555780601f1061132a57610100808354040283529160200191611355565b820191906000526020600020905b81548152906001019060200180831161133857829003601f168201915b505050505081565b600a546001600160a01b031633146113a55760405162461bcd60e51b8152602060048201819052602482015260008051602061472c8339815191526044820152606401610cf5565b600b5460405160009182916001600160a01b039091169047908381818185875af1925050503d80600081146113f6576040519150601f19603f3d011682016040523d82523d6000602084013e6113fb565b606091505b50915091508161144d5760405162461bcd60e51b815260206004820152601860248201527f4661696c656420746f20776974686472617720457468657200000000000000006044820152606401610cf5565b5050565b610e4783838360405180602001604052806000815250612398565b600a546001600160a01b031633146114b45760405162461bcd60e51b8152602060048201819052602482015260008051602061472c8339815191526044820152606401610cf5565b8160058111156115065760405162461bcd60e51b815260206004820152601460248201527f4578636565642050657220547874206c696d69740000000000000000000000006044820152606401610cf5565b6014546003146115585760405162461bcd60e51b815260206004820152601060248201527f4e6f74207075626c696320726f756e64000000000000000000000000000000006044820152606401610cf5565b611562838361309d565b816001600160a01b03167f24a328338b994079bac1243a7abb6023e528ed7ac0fb72957eb6b0f71e09a7a08460145460405161103e929190918252602082015260400190565b60006115b360085490565b82106116275760405162461bcd60e51b815260206004820152602c60248201527f455243373231456e756d657261626c653a20676c6f62616c20696e646578206f60448201527f7574206f6620626f756e647300000000000000000000000000000000000000006064820152608401610cf5565b6008828154811061164857634e487b7160e01b600052603260045260246000fd5b90600052602060002001549050919050565b600a546001600160a01b031633146116a25760405162461bcd60e51b8152602060048201819052602482015260008051602061472c8339815191526044820152606401610cf5565b60005b815181101561144d5760006001600160a01b03168282815181106116d957634e487b7160e01b600052603260045260246000fd5b60200260200101516001600160a01b031614156117385760405162461bcd60e51b815260206004820152601560248201527f4e554c4c20416464726573732050726f766964656400000000000000000000006044820152606401610cf5565b6012600083838151811061175c57634e487b7160e01b600052603260045260246000fd5b6020908102919091018101516001600160a01b03168252810191909152604001600020805460ff1916905580611791816146a4565b9150506116a5565b600a546001600160a01b031633146117e15760405162461bcd60e51b8152602060048201819052602482015260008051602061472c8339815191526044820152606401610cf5565b805161144d90600e906020840190613f47565b600a546001600160a01b0316331461183c5760405162461bcd60e51b8152602060048201819052602482015260008051602061472c8339815191526044820152606401610cf5565b805161144d90600d906020840190613f47565b61185933826132f1565b50565b6000818152600260205260408120546001600160a01b031680610bd75760405162461bcd60e51b815260206004820152602960248201527f4552433732313a206f776e657220717565727920666f72206e6f6e657869737460448201527f656e7420746f6b656e00000000000000000000000000000000000000000000006064820152608401610cf5565b600a546001600160a01b0316331461192f5760405162461bcd60e51b8152602060048201819052602482015260008051602061472c8339815191526044820152606401610cf5565b6001600160a01b0381166119855760405162461bcd60e51b815260206004820152601560248201527f4e554c4c20416464726573732050726f766964656400000000000000000000006044820152606401610cf5565b600b805473ffffffffffffffffffffffffffffffffffffffff19166001600160a01b0392909216919091179055565b600a546001600160a01b031633146119fc5760405162461bcd60e51b8152602060048201819052602482015260008051602061472c8339815191526044820152606401610cf5565b6000601454118015611a115750600360145411155b611a4d5760405162461bcd60e51b815260206004820152600d60248201526c125b9d985b1a5908149bdd5b99609a1b6044820152606401610cf5565b6014546000908152601360205260409020600601805460ff19166001179055565b600a546001600160a01b03163314611ab65760405162461bcd60e51b8152602060048201819052602482015260008051602061472c8339815191526044820152606401610cf5565b6011805460ff19811660ff90911615179055565b600e80546112dc90614647565b60006001600160a01b038216611b555760405162461bcd60e51b815260206004820152602a60248201527f4552433732313a2062616c616e636520717565727920666f7220746865207a6560448201527f726f2061646472657373000000000000000000000000000000000000000000006064820152608401610cf5565b506001600160a01b031660009081526003602052604090205490565b600a546001600160a01b03163314611bb95760405162461bcd60e51b8152602060048201819052602482015260008051602061472c8339815191526044820152606401610cf5565b611bc3600061338d565b565b6000438210611c3c5760405162461bcd60e51b815260206004820152602960248201527f674e757369633a3a6765745072696f72566f7465733a206e6f7420796574206460448201527f657465726d696e656400000000000000000000000000000000000000000000006064820152608401610cf5565b6001600160a01b03831660009081526018602052604090205463ffffffff1680611c6a576000915050610bd7565b6001600160a01b03841660009081526017602052604081208491611c8f6001856145f6565b63ffffffff16815260208101919091526040016000205411611cf5576001600160a01b038416600090815260176020526040812090611ccf6001846145f6565b63ffffffff1663ffffffff16815260200190815260200160002060010154915050610bd7565b6001600160a01b0384166000908152601760209081526040808320838052909152902054831015611d2a576000915050610bd7565b600080611d386001846145f6565b90505b8163ffffffff168163ffffffff161115611df65760006002611d5d84846145f6565b611d67919061459d565b611d7190836145f6565b6001600160a01b038816600090815260176020908152604080832063ffffffff85168452825291829020825180840190935280548084526001909101549183019190915291925090871415611dd057602001519450610bd79350505050565b8051871115611de157819350611def565b611dec6001836145f6565b92505b5050611d3b565b506001600160a01b038516600090815260176020908152604080832063ffffffff9094168352929052206001015491505092915050565b600a546001600160a01b03163314611e755760405162461bcd60e51b8152602060048201819052602482015260008051602061472c8339815191526044820152606401610cf5565b60005b815181101561144d5760006001600160a01b0316828281518110611eac57634e487b7160e01b600052603260045260246000fd5b60200260200101516001600160a01b03161415611f0b5760405162461bcd60e51b815260206004820152601560248201527f4e554c4c20416464726573732050726f766964656400000000000000000000006044820152606401610cf5565b600160126000848481518110611f3157634e487b7160e01b600052603260045260246000fd5b6020908102919091018101516001600160a01b03168252810191909152604001600020805460ff191691151591909117905580611f6d816146a4565b915050611e78565b806005811115611fc75760405162461bcd60e51b815260206004820152601460248201527f4578636565642050657220547874206c696d69740000000000000000000000006044820152606401610cf5565b81600a81611fd433611ad7565b611fde9190614549565b111561202c5760405162461bcd60e51b815260206004820152601860248201527f457863656564205065722041646472657373206c696d697400000000000000006044820152606401610cf5565b3483600c5461203b91906145c0565b146120885760405162461bcd60e51b815260206004820152601760248201527f496e73756666696369656e742046756e64732053656e740000000000000000006044820152606401610cf5565b601454600314156121545760115460ff166120e55760405162461bcd60e51b815260206004820152601360248201527f4d696e74696e67206e6f7420616c6c6f776564000000000000000000000000006044820152606401610cf5565b601154610100900460ff1615612154573360009081526012602052604090205460ff166121545760405162461bcd60e51b815260206004820152600d60248201527f4e6f74205175616c6966696564000000000000000000000000000000000000006044820152606401610cf5565b61215e833361309d565b601454604080518581523460208201529081019190915233907f4dbf92a91d1e82c46de1a50d0502eeeef614ee76c6c07f8ca2c55828e11a8cec9060600161103e565b600a546001600160a01b031633146121e95760405162461bcd60e51b8152602060048201819052602482015260008051602061472c8339815191526044820152606401610cf5565b600081116122395760405162461bcd60e51b815260206004820152601560248201527f50726963652063616e206e6f74206265207a65726f00000000000000000000006044820152606401610cf5565b600c55565b606060018054610bec90614647565b600a546001600160a01b031633146122955760405162461bcd60e51b8152602060048201819052602482015260008051602061472c8339815191526044820152606401610cf5565b6011805461ff001981166101009182900460ff1615909102179055565b61144d3383836133ec565b600a546001600160a01b031633146123055760405162461bcd60e51b8152602060048201819052602482015260008051602061472c8339815191526044820152606401610cf5565b6014546000908152601360205260409020600601805460ff19169055565b6001600160a01b03811660009081526018602052604081205463ffffffff168061234e576000612391565b6001600160a01b0383166000908152601760205260408120906123726001846145f6565b63ffffffff1663ffffffff168152602001908152602001600020600101545b9392505050565b6123a23383612db0565b6124145760405162461bcd60e51b815260206004820152603160248201527f4552433732313a207472616e736665722063616c6c6572206973206e6f74206f60448201527f776e6572206e6f7220617070726f7665640000000000000000000000000000006064820152608401610cf5565b612420848484846134bb565b50505050565b60007f8cad95687ba82c2ce50e74f7b754645e5117c3a5bec8151c0726d5857980a866612451610bdd565b8051906020012061245f4690565b60408051602080820195909552808201939093526060830191909152306080808401919091528151808403909101815260a0830182528051908401207fe48329057bfd03d55e49b547132e39cffd9c1820ad7b9d4c5307691425d15adf60c08401526001600160a01b038b1660e084015261010083018a90526101208084018a9052825180850390910181526101408401909252815191909301207f1901000000000000000000000000000000000000000000000000000000000000610160830152610162820183905261018282018190529192506000906101a20160408051601f198184030181528282528051602091820120600080855291840180845281905260ff8a169284019290925260608301889052608083018790529092509060019060a0016020604051602081039080840390855afa1580156125a6573d6000803e3d6000fd5b5050604051601f1901519150506001600160a01b03811661262f5760405162461bcd60e51b815260206004820152602860248201527f674e757369633a3a64656c656761746542795369673a20696e76616c6964207360448201527f69676e61747572650000000000000000000000000000000000000000000000006064820152608401610cf5565b6001600160a01b0381166000908152601560205260408120805491612653836146a4565b9190505589146126ca5760405162461bcd60e51b8152602060048201526024808201527f674e757369633a3a64656c656761746542795369673a20696e76616c6964206e60448201527f6f6e6365000000000000000000000000000000000000000000000000000000006064820152608401610cf5565b874211156127405760405162461bcd60e51b815260206004820152602860248201527f674e757369633a3a64656c656761746542795369673a207369676e617475726560448201527f20657870697265640000000000000000000000000000000000000000000000006064820152608401610cf5565b61274a818b6132f1565b505050505b505050505050565b6000818152600260205260409020546060906001600160a01b03166127be5760405162461bcd60e51b815260206004820152601560248201527f546f6b656e20646f6573206e6f742065786973747300000000000000000000006044820152606401610cf5565b6000600e80546127cd90614647565b90501161286457600d80546127e190614647565b80601f016020809104026020016040519081016040528092919081815260200182805461280d90614647565b801561285a5780601f1061282f5761010080835404028352916020019161285a565b820191906000526020600020905b81548152906001019060200180831161283d57829003601f168201915b5050505050610bd7565b600e61286f83613544565b6040516020016128809291906143f7565b60405160208183030381529060405292915050565b600a546001600160a01b031633146128dd5760405162461bcd60e51b8152602060048201819052602482015260008051602061472c8339815191526044820152606401610cf5565b60006014541180156128f25750600360145411155b61292e5760405162461bcd60e51b815260206004820152600d60248201526c125b9d985b1a5908149bdd5b99609a1b6044820152606401610cf5565b600b546001600160a01b03166129865760405162461bcd60e51b815260206004820152601560248201527f4e554c4c20416464726573732050726f766964656400000000000000000000006044820152606401610cf5565b60145460009081526013602052604090206004810154600590910154106129ef5760405162461bcd60e51b815260206004820152601d60248201527f416c6c20436c61696d656420666f722063757272656e7420726f756e640000006044820152606401610cf5565b60145460009081526013602052604090206004810154600590910154612a16908390614549565b1115612a8a5760405162461bcd60e51b815260206004820152602360248201527f436c61696d20776f756c642065786365656420737570706c7920666f7220726f60448201527f756e6400000000000000000000000000000000000000000000000000000000006064820152608401610cf5565b61271081612a9760085490565b612aa19190614549565b1115612aef5760405162461bcd60e51b815260206004820152601f60248201527f4d696e74696e6720776f756c6420657863656564206d617820737570706c79006044820152606401610cf5565b60005b818161ffff161015612b63576014546000908152601360205260408120600501805491612b1e836146a4565b909155505060108054906000612b33836146a4565b9091555050600b54601054612b51916001600160a01b031690612d96565b80612b5b81614682565b915050612af2565b50600b546014546040805184815260208101929092526001600160a01b03909216917fd8a514680f1d4a0a3be214cd73bb665c5fe35f82a3876aa1ad820fcd1f47dd77910160405180910390a250565b600a546001600160a01b03163314612bfb5760405162461bcd60e51b8152602060048201819052602482015260008051602061472c8339815191526044820152606401610cf5565b6001600160a01b038116612c775760405162461bcd60e51b815260206004820152602660248201527f4f776e61626c653a206e6577206f776e657220697320746865207a65726f206160448201527f64647265737300000000000000000000000000000000000000000000000000006064820152608401610cf5565b6118598161338d565b60006001600160e01b031982167f80ac58cd000000000000000000000000000000000000000000000000000000001480612ce357506001600160e01b031982167f5b5e139f00000000000000000000000000000000000000000000000000000000145b80610bd757507f01ffc9a7000000000000000000000000000000000000000000000000000000006001600160e01b0319831614610bd7565b6000818152600460205260409020805473ffffffffffffffffffffffffffffffffffffffff19166001600160a01b0384169081179091558190612d5d8261185c565b6001600160a01b03167f8c5be1e5ebec7d5bd14f71427d1e84f3dd0314c0f7b2291e5b200ac8c7c3b92560405160405180910390a45050565b61144d828260405180602001604052806000815250613692565b6000818152600260205260408120546001600160a01b0316612e3a5760405162461bcd60e51b815260206004820152602c60248201527f4552433732313a206f70657261746f7220717565727920666f72206e6f6e657860448201527f697374656e7420746f6b656e00000000000000000000000000000000000000006064820152608401610cf5565b6000612e458361185c565b9050806001600160a01b0316846001600160a01b03161480612e805750836001600160a01b0316612e7584610c6f565b6001600160a01b0316145b80612eb057506001600160a01b0380821660009081526005602090815260408083209388168352929052205460ff165b949350505050565b826001600160a01b0316612ecb8261185c565b6001600160a01b031614612f475760405162461bcd60e51b815260206004820152602960248201527f4552433732313a207472616e73666572206f6620746f6b656e2074686174206960448201527f73206e6f74206f776e00000000000000000000000000000000000000000000006064820152608401610cf5565b6001600160a01b038216612fc25760405162461bcd60e51b8152602060048201526024808201527f4552433732313a207472616e7366657220746f20746865207a65726f2061646460448201527f72657373000000000000000000000000000000000000000000000000000000006064820152608401610cf5565b612fcd83838361371b565b612fd8600082612d1b565b6001600160a01b03831660009081526003602052604081208054600192906130019084906145df565b90915550506001600160a01b038216600090815260036020526040812080546001929061302f908490614549565b9091555050600081815260026020526040808220805473ffffffffffffffffffffffffffffffffffffffff19166001600160a01b0386811691821790925591518493918716917fddf252ad1be2c89b69c2b068fc378daa952ba7f163c4a11628f55a4df523b3ef91a4505050565b60145460009081526013602052604090206006015460ff166131015760405162461bcd60e51b815260206004820152601860248201527f46756e64696e6720526f756e64206e6f742061637469766500000000000000006044820152606401610cf5565b601454600090815260136020526040902060028101546003909101541061316a5760405162461bcd60e51b815260206004820152601c60248201527f416c6c206d696e74656420666f722063757272656e7420726f756e64000000006044820152606401610cf5565b60145460009081526013602052604090206002810154600390910154613191908490614549565b11156132055760405162461bcd60e51b815260206004820152602560248201527f4d696e74696e6720776f756c642065786365656420737570706c7920666f722060448201527f726f756e640000000000000000000000000000000000000000000000000000006064820152608401610cf5565b6103e8826010546132169190614549565b111561328a5760405162461bcd60e51b815260206004820152602860248201527f4d696e74696e6720776f756c6420657863656564207374616765312773206d6160448201527f7820737570706c790000000000000000000000000000000000000000000000006064820152608401610cf5565b60005b828161ffff161015610e475760145460009081526013602052604081206003018054916132b9836146a4565b9091555050601080549060006132ce836146a4565b91905055506132df82601054612d96565b806132e981614682565b91505061328d565b6001600160a01b038083166000908152601660205260408120549091169061331884611ad7565b6001600160a01b03858116600081815260166020526040808220805473ffffffffffffffffffffffffffffffffffffffff1916898616908117909155905194955093928616927f3134e8a2e6d97e929a7e54011ea5485d7d196dd5f0ba4d4ef95803e8e3fc257f9190a4612420828483613755565b600a80546001600160a01b0383811673ffffffffffffffffffffffffffffffffffffffff19831681179093556040519116919082907f8be0079c531659141344cd1fd0a4f28419497f9722a3daafe3b4186f6b6457e090600090a35050565b816001600160a01b0316836001600160a01b0316141561344e5760405162461bcd60e51b815260206004820152601960248201527f4552433732313a20617070726f766520746f2063616c6c6572000000000000006044820152606401610cf5565b6001600160a01b03838116600081815260056020908152604080832094871680845294825291829020805460ff191686151590811790915591519182527f17307eab39ab6107e8899845ad3d59bd9653f200f220920489ca2b5937696c31910160405180910390a3505050565b6134c6848484612eb8565b6134d2848484846138b4565b6124205760405162461bcd60e51b815260206004820152603260248201527f4552433732313a207472616e7366657220746f206e6f6e20455243373231526560448201527f63656976657220696d706c656d656e74657200000000000000000000000000006064820152608401610cf5565b60608161358457505060408051808201909152600181527f3000000000000000000000000000000000000000000000000000000000000000602082015290565b8160005b81156135ae5780613598816146a4565b91506135a79050600a83614589565b9150613588565b60008167ffffffffffffffff8111156135d757634e487b7160e01b600052604160045260246000fd5b6040519080825280601f01601f191660200182016040528015613601576020820181803683370190505b5090505b8415612eb0576136166001836145df565b9150613623600a866146bf565b61362e906030614549565b60f81b81838151811061365157634e487b7160e01b600052603260045260246000fd5b60200101907effffffffffffffffffffffffffffffffffffffffffffffffffffffffffffff1916908160001a90535061368b600a86614589565b9450613605565b61369c8383613a17565b6136a960008484846138b4565b610e475760405162461bcd60e51b815260206004820152603260248201527f4552433732313a207472616e7366657220746f206e6f6e20455243373231526560448201527f63656976657220696d706c656d656e74657200000000000000000000000000006064820152608401610cf5565b613726838383613b72565b6001600160a01b03808416600090815260166020526040808220548584168352912054610e4792918216911660015b816001600160a01b0316836001600160a01b0316141580156137775750600081115b15610e47576001600160a01b0383161561381a576001600160a01b03831660009081526018602052604081205463ffffffff1690816137b75760006137fa565b6001600160a01b0385166000908152601760205260408120906137db6001856145f6565b63ffffffff1663ffffffff168152602001908152602001600020600101545b9050600061380884836145df565b905061381686848484613c2a565b5050505b6001600160a01b03821615610e47576001600160a01b03821660009081526018602052604081205463ffffffff169081613855576000613898565b6001600160a01b0384166000908152601760205260408120906138796001856145f6565b63ffffffff1663ffffffff168152602001908152602001600020600101545b905060006138a68483614549565b905061274f85848484613c2a565b60006001600160a01b0384163b15613a0c57604051630a85bd0160e11b81526001600160a01b0385169063150b7a02906138f89033908990889088906004016144c9565b602060405180830381600087803b15801561391257600080fd5b505af1925050508015613942575060408051601f3d908101601f1916820190925261393f91810190614313565b60015b6139f2573d808015613970576040519150601f19603f3d011682016040523d82523d6000602084013e613975565b606091505b5080516139ea5760405162461bcd60e51b815260206004820152603260248201527f4552433732313a207472616e7366657220746f206e6f6e20455243373231526560448201527f63656976657220696d706c656d656e74657200000000000000000000000000006064820152608401610cf5565b805181602001fd5b6001600160e01b031916630a85bd0160e11b149050612eb0565b506001949350505050565b6001600160a01b038216613a6d5760405162461bcd60e51b815260206004820181905260248201527f4552433732313a206d696e7420746f20746865207a65726f20616464726573736044820152606401610cf5565b6000818152600260205260409020546001600160a01b031615613ad25760405162461bcd60e51b815260206004820152601c60248201527f4552433732313a20746f6b656e20616c7265616479206d696e746564000000006044820152606401610cf5565b613ade6000838361371b565b6001600160a01b0382166000908152600360205260408120805460019290613b07908490614549565b9091555050600081815260026020526040808220805473ffffffffffffffffffffffffffffffffffffffff19166001600160a01b03861690811790915590518392907fddf252ad1be2c89b69c2b068fc378daa952ba7f163c4a11628f55a4df523b3ef908290a45050565b6001600160a01b038316613bcd57613bc881600880546000838152600960205260408120829055600182018355919091527ff3f7a9fe364faab93b216da50a3214154f22a0a2b415b23a84c8169e8b636ee30155565b613bf0565b816001600160a01b0316836001600160a01b031614613bf057613bf08382613d8d565b6001600160a01b038216613c0757610e4781613e2a565b826001600160a01b0316826001600160a01b031614610e4757610e478282613f03565b60008363ffffffff16118015613c7957506001600160a01b03841660009081526017602052604081204391613c606001876145f6565b63ffffffff168152602081019190915260400160002054145b15613cc2576001600160a01b03841660009081526017602052604081208291613ca36001876145f6565b63ffffffff168152602081019190915260400160002060010155613d43565b60408051808201825243815260208082018481526001600160a01b03881660009081526017835284812063ffffffff89168252909252929020905181559051600191820155613d12908490614561565b6001600160a01b0385166000908152601860205260409020805463ffffffff191663ffffffff929092169190911790555b60408051838152602081018390526001600160a01b038616917fdec2bacdd2f05b59de34da9b523dff8be42e5e38e818c82fdb0bae774387a724910160405180910390a250505050565b60006001613d9a84611ad7565b613da491906145df565b600083815260076020526040902054909150808214613df7576001600160a01b03841660009081526006602090815260408083208584528252808320548484528184208190558352600790915290208190555b5060009182526007602090815260408084208490556001600160a01b039094168352600681528383209183525290812055565b600854600090613e3c906001906145df565b60008381526009602052604081205460088054939450909284908110613e7257634e487b7160e01b600052603260045260246000fd5b906000526020600020015490508060088381548110613ea157634e487b7160e01b600052603260045260246000fd5b6000918252602080832090910192909255828152600990915260408082208490558582528120556008805480613ee757634e487b7160e01b600052603160045260246000fd5b6001900381819060005260206000200160009055905550505050565b6000613f0e83611ad7565b6001600160a01b039093166000908152600660209081526040808320868452825280832085905593825260079052919091209190915550565b828054613f5390614647565b90600052602060002090601f016020900481019282613f755760008555613fbb565b82601f10613f8e57805160ff1916838001178555613fbb565b82800160010185558215613fbb579182015b82811115613fbb578251825591602001919060010190613fa0565b50613fc7929150613fcb565b5090565b5b80821115613fc75760008155600101613fcc565b600067ffffffffffffffff831115613ffa57613ffa6146ff565b61400d601f8401601f1916602001614518565b905082815283838301111561402157600080fd5b828260208301376000602084830101529392505050565b80356001600160a01b038116811461404f57600080fd5b919050565b600060208284031215614065578081fd5b61239182614038565b60008060408385031215614080578081fd5b61408983614038565b915061409760208401614038565b90509250929050565b6000806000606084860312156140b4578081fd5b6140bd84614038565b92506140cb60208501614038565b9150604084013590509250925092565b600080600080608085870312156140f0578081fd5b6140f985614038565b935061410760208601614038565b925060408501359150606085013567ffffffffffffffff811115614129578182fd5b8501601f81018713614139578182fd5b61414887823560208401613fe0565b91505092959194509250565b60008060408385031215614166578182fd5b61416f83614038565b915060208301358015158114614183578182fd5b809150509250929050565b600080604083850312156141a0578182fd5b6141a983614038565b946020939093013593505050565b60008060008060008060c087890312156141cf578182fd5b6141d887614038565b95506020870135945060408701359350606087013560ff811681146141fb578283fd5b9598949750929560808101359460a0909101359350915050565b60008060408385031215614227578182fd5b61423083614038565b9150602083013563ffffffff81168114614183578182fd5b6000602080838503121561425a578182fd5b823567ffffffffffffffff80821115614271578384fd5b818501915085601f830112614284578384fd5b813581811115614296576142966146ff565b8060051b91506142a7848301614518565b8181528481019084860184860187018a10156142c1578788fd5b8795505b838610156142ea576142d681614038565b8352600195909501949186019186016142c5565b5098975050505050505050565b600060208284031215614308578081fd5b813561239181614715565b600060208284031215614324578081fd5b815161239181614715565b600060208284031215614340578081fd5b813567ffffffffffffffff811115614356578182fd5b8201601f81018413614366578182fd5b612eb084823560208401613fe0565b600060208284031215614386578081fd5b5035919050565b6000806040838503121561439f578182fd5b8235915061409760208401614038565b600081518084526143c781602086016020860161461b565b601f01601f19169290920160200192915050565b600081516143ed81856020860161461b565b9290920192915050565b600080845482600182811c91508083168061441357607f831692505b602080841082141561443357634e487b7160e01b87526022600452602487fd5b818015614447576001811461445857614484565b60ff19861689528489019650614484565b60008b815260209020885b8681101561447c5781548b820152908501908301614463565b505084890196505b5050505050506144c061449782866143db565b7f2e6a736f6e000000000000000000000000000000000000000000000000000000815260050190565b95945050505050565b60006001600160a01b038087168352808616602084015250836040830152608060608301526144fb60808301846143af565b9695505050505050565b60208152600061239160208301846143af565b604051601f8201601f1916810167ffffffffffffffff81118282101715614541576145416146ff565b604052919050565b6000821982111561455c5761455c6146d3565b500190565b600063ffffffff808316818516808303821115614580576145806146d3565b01949350505050565b600082614598576145986146e9565b500490565b600063ffffffff808416806145b4576145b46146e9565b92169190910492915050565b60008160001904831182151516156145da576145da6146d3565b500290565b6000828210156145f1576145f16146d3565b500390565b600063ffffffff83811690831681811015614613576146136146d3565b039392505050565b60005b8381101561463657818101518382015260200161461e565b838111156124205750506000910152565b600181811c9082168061465b57607f821691505b6020821081141561467c57634e487b7160e01b600052602260045260246000fd5b50919050565b600061ffff8083168181141561469a5761469a6146d3565b6001019392505050565b60006000198214156146b8576146b86146d3565b5060010190565b6000826146ce576146ce6146e9565b500690565b634e487b7160e01b600052601160045260246000fd5b634e487b7160e01b600052601260045260246000fd5b634e487b7160e01b600052604160045260246000fd5b6001600160e01b03198116811461185957600080fdfe4f776e61626c653a2063616c6c6572206973206e6f7420746865206f776e6572a164736f6c6343000804000a",
  "linkReferences": {},
  "deployedLinkReferences": {}
}