{
  "_format": "hh-sol-artifact-1",
  "contractName": "Nusic",
  "sourceName": "contracts/governance/Nusic.sol",
  "abi": [
    {
      "inputs": [
        {
          "internalType": "string",
          "name": "_name",
          "type": "string"
        },
        {
          "internalType": "string",
          "name": "_symbol",
          "type": "string"
        },
        {
          "internalType": "string",
          "name": "_defaultURI",
          "type": "string"
        }
      ],
      "stateMutability": "nonpayable",
      "type": "constructor"
    },
    {
      "anonymous": false,
      "inputs": [
        {
          "indexed": true,
          "internalType": "address",
          "name": "owner",
          "type": "address"
        },
        {
          "indexed": true,
          "internalType": "address",
          "name": "approved",
          "type": "address"
        },
        {
          "indexed": true,
          "internalType": "uint256",
          "name": "tokenId",
          "type": "uint256"
        }
      ],
      "name": "Approval",
      "type": "event"
    },
    {
      "anonymous": false,
      "inputs": [
        {
          "indexed": true,
          "internalType": "address",
          "name": "owner",
          "type": "address"
        },
        {
          "indexed": true,
          "internalType": "address",
          "name": "operator",
          "type": "address"
        },
        {
          "indexed": false,
          "internalType": "bool",
          "name": "approved",
          "type": "bool"
        }
      ],
      "name": "ApprovalForAll",
      "type": "event"
    },
    {
      "anonymous": false,
      "inputs": [
        {
          "indexed": true,
          "internalType": "address",
          "name": "delegator",
          "type": "address"
        },
        {
          "indexed": true,
          "internalType": "address",
          "name": "fromDelegate",
          "type": "address"
        },
        {
          "indexed": true,
          "internalType": "address",
          "name": "toDelegate",
          "type": "address"
        }
      ],
      "name": "DelegateChanged",
      "type": "event"
    },
    {
      "anonymous": false,
      "inputs": [
        {
          "indexed": true,
          "internalType": "address",
          "name": "delegate",
          "type": "address"
        },
        {
          "indexed": false,
          "internalType": "uint256",
          "name": "previousBalance",
          "type": "uint256"
        },
        {
          "indexed": false,
          "internalType": "uint256",
          "name": "newBalance",
          "type": "uint256"
        }
      ],
      "name": "DelegateVotesChanged",
      "type": "event"
    },
    {
      "anonymous": false,
      "inputs": [
        {
          "indexed": true,
          "internalType": "address",
          "name": "previousOwner",
          "type": "address"
        },
        {
          "indexed": true,
          "internalType": "address",
          "name": "newOwner",
          "type": "address"
        }
      ],
      "name": "OwnershipTransferred",
      "type": "event"
    },
    {
      "anonymous": false,
      "inputs": [
        {
          "indexed": true,
          "internalType": "address",
          "name": "to",
          "type": "address"
        },
        {
          "indexed": false,
          "internalType": "uint256",
          "name": "tokenQuantity",
          "type": "uint256"
        }
      ],
      "name": "PreSeedMinted",
      "type": "event"
    },
    {
      "anonymous": false,
      "inputs": [
        {
          "indexed": true,
          "internalType": "address",
          "name": "to",
          "type": "address"
        },
        {
          "indexed": false,
          "internalType": "uint256",
          "name": "tokenQuantity",
          "type": "uint256"
        },
        {
          "indexed": false,
          "internalType": "uint256",
          "name": "amountTransfered",
          "type": "uint256"
        },
        {
          "indexed": false,
          "internalType": "uint256",
          "name": "round",
          "type": "uint256"
        }
      ],
      "name": "Stage1Minted",
      "type": "event"
    },
    {
      "anonymous": false,
      "inputs": [
        {
          "indexed": true,
          "internalType": "address",
          "name": "from",
          "type": "address"
        },
        {
          "indexed": true,
          "internalType": "address",
          "name": "to",
          "type": "address"
        },
        {
          "indexed": true,
          "internalType": "uint256",
          "name": "tokenId",
          "type": "uint256"
        }
      ],
      "name": "Transfer",
      "type": "event"
    },
    {
      "anonymous": false,
      "inputs": [
        {
          "indexed": true,
          "internalType": "address",
          "name": "to",
          "type": "address"
        },
        {
          "indexed": false,
          "internalType": "uint256",
          "name": "tokenQuantity",
          "type": "uint256"
        }
      ],
      "name": "TreasuryClaimed",
      "type": "event"
    },
    {
      "inputs": [],
      "name": "DELEGATION_TYPEHASH",
      "outputs": [
        {
          "internalType": "bytes32",
          "name": "",
          "type": "bytes32"
        }
      ],
      "stateMutability": "view",
      "type": "function"
    },
    {
      "inputs": [],
      "name": "DOMAIN_TYPEHASH",
      "outputs": [
        {
          "internalType": "bytes32",
          "name": "",
          "type": "bytes32"
        }
      ],
      "stateMutability": "view",
      "type": "function"
    },
    {
      "inputs": [],
      "name": "MAX_PRE_SEED_SUPPLY",
      "outputs": [
        {
          "internalType": "uint256",
          "name": "",
          "type": "uint256"
        }
      ],
      "stateMutability": "view",
      "type": "function"
    },
    {
      "inputs": [],
      "name": "MAX_SUPPLY",
      "outputs": [
        {
          "internalType": "uint256",
          "name": "",
          "type": "uint256"
        }
      ],
      "stateMutability": "view",
      "type": "function"
    },
    {
      "inputs": [],
      "name": "MINT_PER_ADDR",
      "outputs": [
        {
          "internalType": "uint256",
          "name": "",
          "type": "uint256"
        }
      ],
      "stateMutability": "view",
      "type": "function"
    },
    {
      "inputs": [],
      "name": "MINT_PER_TXT",
      "outputs": [
        {
          "internalType": "uint256",
          "name": "",
          "type": "uint256"
        }
      ],
      "stateMutability": "view",
      "type": "function"
    },
    {
      "inputs": [],
      "name": "STAGE1_MAX_SUPPLY",
      "outputs": [
        {
          "internalType": "uint256",
          "name": "",
          "type": "uint256"
        }
      ],
      "stateMutability": "view",
      "type": "function"
    },
    {
      "inputs": [
        {
          "internalType": "uint256",
          "name": "roundNumber",
          "type": "uint256"
        }
      ],
      "name": "activateRound",
      "outputs": [],
      "stateMutability": "nonpayable",
      "type": "function"
    },
    {
      "inputs": [
        {
          "internalType": "address",
          "name": "to",
          "type": "address"
        },
        {
          "internalType": "uint256",
          "name": "tokenId",
          "type": "uint256"
        }
      ],
      "name": "approve",
      "outputs": [],
      "stateMutability": "nonpayable",
      "type": "function"
    },
    {
      "inputs": [
        {
          "internalType": "address",
          "name": "owner",
          "type": "address"
        }
      ],
      "name": "balanceOf",
      "outputs": [
        {
          "internalType": "uint256",
          "name": "",
          "type": "uint256"
        }
      ],
      "stateMutability": "view",
      "type": "function"
    },
    {
      "inputs": [],
      "name": "baseURI",
      "outputs": [
        {
          "internalType": "string",
          "name": "",
          "type": "string"
        }
      ],
      "stateMutability": "view",
      "type": "function"
    },
    {
      "inputs": [
        {
          "internalType": "address",
          "name": "",
          "type": "address"
        },
        {
          "internalType": "uint32",
          "name": "",
          "type": "uint32"
        }
      ],
      "name": "checkpoints",
      "outputs": [
        {
          "internalType": "uint256",
          "name": "fromBlock",
          "type": "uint256"
        },
        {
          "internalType": "uint256",
          "name": "votes",
          "type": "uint256"
        }
      ],
      "stateMutability": "view",
      "type": "function"
    },
    {
      "inputs": [],
      "name": "deactivateCurrentRound",
      "outputs": [],
      "stateMutability": "nonpayable",
      "type": "function"
    },
    {
      "inputs": [],
      "name": "defaultURI",
      "outputs": [
        {
          "internalType": "string",
          "name": "",
          "type": "string"
        }
      ],
      "stateMutability": "view",
      "type": "function"
    },
    {
      "inputs": [
        {
          "internalType": "address",
          "name": "delegatee",
          "type": "address"
        }
      ],
      "name": "delegate",
      "outputs": [],
      "stateMutability": "nonpayable",
      "type": "function"
    },
    {
      "inputs": [
        {
          "internalType": "address",
          "name": "delegatee",
          "type": "address"
        },
        {
          "internalType": "uint256",
          "name": "nonce",
          "type": "uint256"
        },
        {
          "internalType": "uint256",
          "name": "expiry",
          "type": "uint256"
        },
        {
          "internalType": "uint8",
          "name": "v",
          "type": "uint8"
        },
        {
          "internalType": "bytes32",
          "name": "r",
          "type": "bytes32"
        },
        {
          "internalType": "bytes32",
          "name": "s",
          "type": "bytes32"
        }
      ],
      "name": "delegateBySig",
      "outputs": [],
      "stateMutability": "nonpayable",
      "type": "function"
    },
    {
      "inputs": [
        {
          "internalType": "address",
          "name": "",
          "type": "address"
        }
      ],
      "name": "delegates",
      "outputs": [
        {
          "internalType": "address",
          "name": "",
          "type": "address"
        }
      ],
      "stateMutability": "view",
      "type": "function"
    },
    {
      "inputs": [
        {
          "internalType": "uint256",
          "name": "tokenId",
          "type": "uint256"
        }
      ],
      "name": "getApproved",
      "outputs": [
        {
          "internalType": "address",
          "name": "",
          "type": "address"
        }
      ],
      "stateMutability": "view",
      "type": "function"
    },
    {
      "inputs": [
        {
          "internalType": "address",
          "name": "account",
          "type": "address"
        }
      ],
      "name": "getCurrentVotes",
      "outputs": [
        {
          "internalType": "uint256",
          "name": "",
          "type": "uint256"
        }
      ],
      "stateMutability": "view",
      "type": "function"
    },
    {
      "inputs": [
        {
          "internalType": "address",
          "name": "account",
          "type": "address"
        },
        {
          "internalType": "uint256",
          "name": "blockNumber",
          "type": "uint256"
        }
      ],
      "name": "getPriorVotes",
      "outputs": [
        {
          "internalType": "uint256",
          "name": "",
          "type": "uint256"
        }
      ],
      "stateMutability": "view",
      "type": "function"
    },
    {
      "inputs": [
        {
          "internalType": "address",
          "name": "owner",
          "type": "address"
        },
        {
          "internalType": "address",
          "name": "operator",
          "type": "address"
        }
      ],
      "name": "isApprovedForAll",
      "outputs": [
        {
          "internalType": "bool",
          "name": "",
          "type": "bool"
        }
      ],
      "stateMutability": "view",
      "type": "function"
    },
    {
      "inputs": [],
      "name": "name",
      "outputs": [
        {
          "internalType": "string",
          "name": "",
          "type": "string"
        }
      ],
      "stateMutability": "view",
      "type": "function"
    },
    {
      "inputs": [
        {
          "internalType": "address",
          "name": "",
          "type": "address"
        }
      ],
      "name": "numCheckpoints",
      "outputs": [
        {
          "internalType": "uint32",
          "name": "",
          "type": "uint32"
        }
      ],
      "stateMutability": "view",
      "type": "function"
    },
    {
      "inputs": [],
      "name": "owner",
      "outputs": [
        {
          "internalType": "address",
          "name": "",
          "type": "address"
        }
      ],
      "stateMutability": "view",
      "type": "function"
    },
    {
      "inputs": [
        {
          "internalType": "uint256",
          "name": "tokenId",
          "type": "uint256"
        }
      ],
      "name": "ownerOf",
      "outputs": [
        {
          "internalType": "address",
          "name": "",
          "type": "address"
        }
      ],
      "stateMutability": "view",
      "type": "function"
    },
    {
      "inputs": [
        {
          "internalType": "uint256",
          "name": "tokenQuantity",
          "type": "uint256"
        },
        {
          "internalType": "address",
          "name": "to",
          "type": "address"
        }
      ],
      "name": "preSeedMint",
      "outputs": [],
      "stateMutability": "nonpayable",
      "type": "function"
    },
    {
      "inputs": [],
      "name": "preSeedMinted",
      "outputs": [
        {
          "internalType": "uint256",
          "name": "",
          "type": "uint256"
        }
      ],
      "stateMutability": "view",
      "type": "function"
    },
    {
      "inputs": [],
      "name": "price",
      "outputs": [
        {
          "internalType": "uint256",
          "name": "",
          "type": "uint256"
        }
      ],
      "stateMutability": "view",
      "type": "function"
    },
    {
      "inputs": [],
      "name": "renounceOwnership",
      "outputs": [],
      "stateMutability": "nonpayable",
      "type": "function"
    },
    {
      "inputs": [
        {
          "internalType": "address",
          "name": "from",
          "type": "address"
        },
        {
          "internalType": "address",
          "name": "to",
          "type": "address"
        },
        {
          "internalType": "uint256",
          "name": "tokenId",
          "type": "uint256"
        }
      ],
      "name": "safeTransferFrom",
      "outputs": [],
      "stateMutability": "nonpayable",
      "type": "function"
    },
    {
      "inputs": [
        {
          "internalType": "address",
          "name": "from",
          "type": "address"
        },
        {
          "internalType": "address",
          "name": "to",
          "type": "address"
        },
        {
          "internalType": "uint256",
          "name": "tokenId",
          "type": "uint256"
        },
        {
          "internalType": "bytes",
          "name": "_data",
          "type": "bytes"
        }
      ],
      "name": "safeTransferFrom",
      "outputs": [],
      "stateMutability": "nonpayable",
      "type": "function"
    },
    {
      "inputs": [
        {
          "internalType": "address",
          "name": "operator",
          "type": "address"
        },
        {
          "internalType": "bool",
          "name": "approved",
          "type": "bool"
        }
      ],
      "name": "setApprovalForAll",
      "outputs": [],
      "stateMutability": "nonpayable",
      "type": "function"
    },
    {
      "inputs": [
        {
          "internalType": "string",
          "name": "uri",
          "type": "string"
        }
      ],
      "name": "setBaseURI",
      "outputs": [],
      "stateMutability": "nonpayable",
      "type": "function"
    },
    {
      "inputs": [
        {
          "internalType": "string",
          "name": "_defaultURI",
          "type": "string"
        }
      ],
      "name": "setDefaultRI",
      "outputs": [],
      "stateMutability": "nonpayable",
      "type": "function"
    },
    {
      "inputs": [
        {
          "internalType": "uint256",
          "name": "newPrice",
          "type": "uint256"
        }
      ],
      "name": "setPrice",
      "outputs": [],
      "stateMutability": "nonpayable",
      "type": "function"
    },
    {
      "inputs": [
        {
          "internalType": "address",
          "name": "newTreasuryAddress",
          "type": "address"
        }
      ],
      "name": "setTreasuryAddress",
      "outputs": [],
      "stateMutability": "nonpayable",
      "type": "function"
    },
    {
      "inputs": [
        {
          "internalType": "uint256",
          "name": "tokenQuantity",
          "type": "uint256"
        }
      ],
      "name": "stage1Mint",
      "outputs": [],
      "stateMutability": "payable",
      "type": "function"
    },
    {
      "inputs": [
        {
          "internalType": "uint256",
          "name": "",
          "type": "uint256"
        }
      ],
      "name": "stage1Rounds",
      "outputs": [
        {
          "internalType": "uint256",
          "name": "roundNumber",
          "type": "uint256"
        },
        {
          "internalType": "uint256",
          "name": "totalSupplyBeforeCurrentRound",
          "type": "uint256"
        },
        {
          "internalType": "uint256",
          "name": "maxSupplyForRound",
          "type": "uint256"
        },
        {
          "internalType": "uint256",
          "name": "minted",
          "type": "uint256"
        },
        {
          "internalType": "uint256",
          "name": "maxTreasuryShare",
          "type": "uint256"
        },
        {
          "internalType": "uint256",
          "name": "treasuryClaimed",
          "type": "uint256"
        },
        {
          "internalType": "bool",
          "name": "isActive",
          "type": "bool"
        }
      ],
      "stateMutability": "view",
      "type": "function"
    },
    {
      "inputs": [
        {
          "internalType": "bytes4",
          "name": "interfaceId",
          "type": "bytes4"
        }
      ],
      "name": "supportsInterface",
      "outputs": [
        {
          "internalType": "bool",
          "name": "",
          "type": "bool"
        }
      ],
      "stateMutability": "view",
      "type": "function"
    },
    {
      "inputs": [],
      "name": "symbol",
      "outputs": [
        {
          "internalType": "string",
          "name": "",
          "type": "string"
        }
      ],
      "stateMutability": "view",
      "type": "function"
    },
    {
      "inputs": [
        {
          "internalType": "uint256",
          "name": "index",
          "type": "uint256"
        }
      ],
      "name": "tokenByIndex",
      "outputs": [
        {
          "internalType": "uint256",
          "name": "",
          "type": "uint256"
        }
      ],
      "stateMutability": "view",
      "type": "function"
    },
    {
      "inputs": [
        {
          "internalType": "address",
          "name": "owner",
          "type": "address"
        },
        {
          "internalType": "uint256",
          "name": "index",
          "type": "uint256"
        }
      ],
      "name": "tokenOfOwnerByIndex",
      "outputs": [
        {
          "internalType": "uint256",
          "name": "",
          "type": "uint256"
        }
      ],
      "stateMutability": "view",
      "type": "function"
    },
    {
      "inputs": [
        {
          "internalType": "uint256",
          "name": "tokenId",
          "type": "uint256"
        }
      ],
      "name": "tokenURI",
      "outputs": [
        {
          "internalType": "string",
          "name": "",
          "type": "string"
        }
      ],
      "stateMutability": "view",
      "type": "function"
    },
    {
      "inputs": [],
      "name": "totalMinted",
      "outputs": [
        {
          "internalType": "uint256",
          "name": "",
          "type": "uint256"
        }
      ],
      "stateMutability": "view",
      "type": "function"
    },
    {
      "inputs": [],
      "name": "totalSupply",
      "outputs": [
        {
          "internalType": "uint256",
          "name": "",
          "type": "uint256"
        }
      ],
      "stateMutability": "view",
      "type": "function"
    },
    {
      "inputs": [
        {
          "internalType": "address",
          "name": "from",
          "type": "address"
        },
        {
          "internalType": "address",
          "name": "to",
          "type": "address"
        },
        {
          "internalType": "uint256",
          "name": "tokenId",
          "type": "uint256"
        }
      ],
      "name": "transferFrom",
      "outputs": [],
      "stateMutability": "nonpayable",
      "type": "function"
    },
    {
      "inputs": [
        {
          "internalType": "address",
          "name": "newOwner",
          "type": "address"
        }
      ],
      "name": "transferOwnership",
      "outputs": [],
      "stateMutability": "nonpayable",
      "type": "function"
    },
    {
      "inputs": [
        {
          "internalType": "uint256",
          "name": "tokenQuantity",
          "type": "uint256"
        }
      ],
      "name": "treasuryClaim",
      "outputs": [],
      "stateMutability": "nonpayable",
      "type": "function"
    },
    {
      "inputs": [],
      "name": "tresuryAddress",
      "outputs": [
        {
          "internalType": "address",
          "name": "",
          "type": "address"
        }
      ],
      "stateMutability": "view",
      "type": "function"
    },
    {
      "inputs": [],
      "name": "withdraw",
      "outputs": [],
      "stateMutability": "nonpayable",
      "type": "function"
    }
  ],
  "bytecode": "0x6080604052600b80546001600160a01b0319169055668e1bc9bf040000600c5560196010553480156200003157600080fd5b50604051620044963803806200449683398101604081905262000054916200047d565b8251839083906200006d90600090602085019062000324565b5080516200008390600190602084019062000324565b505050620000a06200009a620002ce60201b60201c565b620002d2565b8051620000b590600d90602084019062000324565b506040518060e0016040528060018152602001600081526020016064815260200160008152602001607d815260200160008152602001600015158152506011600060018152602001908152602001600020600082015181600001556020820151816001015560408201518160020155606082015181600301556080820151816004015560a0820151816005015560c08201518160060160006101000a81548160ff0219169083151502179055509050506040518060e001604052806002815260200160fa8152602001607d815260200160008152602001607d815260200160008152602001600015158152506011600060028152602001908152602001600020600082015181600001556020820151816001015560408201518160020155606082015181600301556080820151816004015560a0820151816005015560c08201518160060160006101000a81548160ff0219169083151502179055509050506040518060e00160405280600381526020016101f4815260200160fa8152602001600081526020016101f4815260200160008152602001600015158152506011600060038152602001908152602001600020600082015181600001556020820151816001015560408201518160020155606082015181600301556080820151816004015560a0820151816005015560c08201518160060160006101000a81548160ff0219169083151502179055509050505050506200055d565b3390565b600a80546001600160a01b038381166001600160a01b0319831681179093556040519116919082907f8be0079c531659141344cd1fd0a4f28419497f9722a3daafe3b4186f6b6457e090600090a35050565b82805462000332906200050a565b90600052602060002090601f016020900481019282620003565760008555620003a1565b82601f106200037157805160ff1916838001178555620003a1565b82800160010185558215620003a1579182015b82811115620003a157825182559160200191906001019062000384565b50620003af929150620003b3565b5090565b5b80821115620003af5760008155600101620003b4565b600082601f830112620003db578081fd5b81516001600160401b0380821115620003f857620003f862000547565b604051601f8301601f19908116603f0116810190828211818310171562000423576200042362000547565b816040528381526020925086838588010111156200043f578485fd5b8491505b8382101562000462578582018301518183018401529082019062000443565b838211156200047357848385830101525b9695505050505050565b60008060006060848603121562000492578283fd5b83516001600160401b0380821115620004a9578485fd5b620004b787838801620003ca565b94506020860151915080821115620004cd578384fd5b620004db87838801620003ca565b93506040860151915080821115620004f1578283fd5b506200050086828701620003ca565b9150509250925092565b600181811c908216806200051f57607f821691505b602082108114156200054157634e487b7160e01b600052602260045260246000fd5b50919050565b634e487b7160e01b600052604160045260246000fd5b613f29806200056d6000396000f3fe6080604052600436106103295760003560e01c806370a08231116101a5578063a7afc1ca116100ec578063ca1cc82c11610095578063e847fbe41161006f578063e847fbe414610952578063e985e9c514610972578063f1127ed8146109bb578063f2fde38b14610a0f57600080fd5b8063ca1cc82c146108f2578063e0e5722314610908578063e7a324dc1461091e57600080fd5b8063ba845f13116100c6578063ba845f131461089d578063c3cda520146108b2578063c87b56dd146108d257600080fd5b8063a7afc1ca14610848578063b4b5ea571461085d578063b88d4fde1461087d57600080fd5b80638da5cb5b1161014e578063a035b1fe11610128578063a035b1fe146107fc578063a22cb46514610812578063a2309ff81461083257600080fd5b80638da5cb5b146107a957806391b7f5ed146107c757806395d89b41146107e757600080fd5b80637e2b3a7e1161017f5780637e2b3a7e146106e4578063825de5af146107045780638a83dccb1461079657600080fd5b806370a082311461068f578063715018a6146106af578063782d6fe1146106c457600080fd5b80633ccfd60b116102745780635a633a9f1161021d5780636352211e116101f75780636352211e146105f25780636605bfda146106125780636c0360eb146106325780636fcfff451461064757600080fd5b80635a633a9f1461059d5780635c19a95c146105bd578063610f0135146105dd57600080fd5b806355f804b31161024e57806355f804b31461053257806356e610ac14610552578063587cde1e1461056757600080fd5b80633ccfd60b146104dd57806342842e0e146104f25780634f6ccce71461051257600080fd5b806318160ddd116102d65780632f745c59116102b05780632f745c591461049257806332cb6b0c146104b25780633a367a67146104c857600080fd5b806318160ddd1461041f57806320606b701461043e57806323b872dd1461047257600080fd5b8063095ea7b311610307578063095ea7b3146103bd5780630d86332f146103df57806314743e7e146103ff57600080fd5b806301ffc9a71461032e57806306fdde0314610363578063081812fc14610385575b600080fd5b34801561033a57600080fd5b5061034e610349366004613b19565b610a2f565b60405190151581526020015b60405180910390f35b34801561036f57600080fd5b50610378610a73565b60405161035a9190613d27565b34801561039157600080fd5b506103a56103a0366004613b97565b610b05565b6040516001600160a01b03909116815260200161035a565b3480156103c957600080fd5b506103dd6103d8366004613a5f565b610bb0565b005b3480156103eb57600080fd5b506103dd6103fa366004613baf565b610ce2565b34801561040b57600080fd5b506103dd61041a366004613b97565b610f00565b34801561042b57600080fd5b506008545b60405190815260200161035a565b34801561044a57600080fd5b506104307f8cad95687ba82c2ce50e74f7b754645e5117c3a5bec8151c0726d5857980a86681565b34801561047e57600080fd5b506103dd61048d366004613971565b611077565b34801561049e57600080fd5b506104306104ad366004613a5f565b6110fe565b3480156104be57600080fd5b5061043061271081565b3480156104d457600080fd5b506103786111a6565b3480156104e957600080fd5b506103dd611234565b3480156104fe57600080fd5b506103dd61050d366004613971565b61133a565b34801561051e57600080fd5b5061043061052d366004613b97565b611355565b34801561053e57600080fd5b506103dd61054d366004613b51565b611407565b34801561055e57600080fd5b50610430601981565b34801561057357600080fd5b506103a5610582366004613925565b6014602052600090815260409020546001600160a01b031681565b3480156105a957600080fd5b506103dd6105b8366004613b51565b611474565b3480156105c957600080fd5b506103dd6105d8366004613925565b6114e1565b3480156105e957600080fd5b50610430606481565b3480156105fe57600080fd5b506103a561060d366004613b97565b6114ee565b34801561061e57600080fd5b506103dd61062d366004613925565b611579565b34801561063e57600080fd5b50610378611658565b34801561065357600080fd5b5061067a610662366004613925565b60166020526000908152604090205463ffffffff1681565b60405163ffffffff909116815260200161035a565b34801561069b57600080fd5b506104306106aa366004613925565b611665565b3480156106bb57600080fd5b506103dd6116ff565b3480156106d057600080fd5b506104306106df366004613a5f565b611765565b3480156106f057600080fd5b50600b546103a5906001600160a01b031681565b34801561071057600080fd5b5061075f61071f366004613b97565b6011602052600090815260409020805460018201546002830154600384015460048501546005860154600690960154949593949293919290919060ff1687565b604080519788526020880196909652948601939093526060850191909152608084015260a0830152151560c082015260e00161035a565b6103dd6107a4366004613b97565b6119cd565b3480156107b557600080fd5b50600a546001600160a01b03166103a5565b3480156107d357600080fd5b506103dd6107e2366004613b97565b611d78565b3480156107f357600080fd5b50610378611e27565b34801561080857600080fd5b50610430600c5481565b34801561081e57600080fd5b506103dd61082d366004613a25565b611e36565b34801561083e57600080fd5b5061043060105481565b34801561085457600080fd5b506103dd611e41565b34801561086957600080fd5b50610430610878366004613925565b611eb9565b34801561088957600080fd5b506103dd6108983660046139ac565b611f2e565b3480156108a957600080fd5b50610430600581565b3480156108be57600080fd5b506103dd6108cd366004613a88565b611fbc565b3480156108de57600080fd5b506103786108ed366004613b97565b6122ed565b3480156108fe57600080fd5b50610430600f5481565b34801561091457600080fd5b506104306103e881565b34801561092a57600080fd5b506104307fe48329057bfd03d55e49b547132e39cffd9c1820ad7b9d4c5307691425d15adf81565b34801561095e57600080fd5b506103dd61096d366004613b97565b61242b565b34801561097e57600080fd5b5061034e61098d36600461393f565b6001600160a01b03918216600090815260056020908152604080832093909416825291909152205460ff1690565b3480156109c757600080fd5b506109fa6109d6366004613ae6565b60156020908152600092835260408084209091529082529020805460019091015482565b6040805192835260208301919091520161035a565b348015610a1b57600080fd5b506103dd610a2a366004613925565b6126a8565b60006001600160e01b031982167f780e9d63000000000000000000000000000000000000000000000000000000001480610a6d5750610a6d82612787565b92915050565b606060008054610a8290613e38565b80601f0160208091040260200160405190810160405280929190818152602001828054610aae90613e38565b8015610afb5780601f10610ad057610100808354040283529160200191610afb565b820191906000526020600020905b815481529060010190602001808311610ade57829003601f168201915b5050505050905090565b6000818152600260205260408120546001600160a01b0316610b945760405162461bcd60e51b815260206004820152602c60248201527f4552433732313a20617070726f76656420717565727920666f72206e6f6e657860448201527f697374656e7420746f6b656e000000000000000000000000000000000000000060648201526084015b60405180910390fd5b506000908152600460205260409020546001600160a01b031690565b6000610bbb826114ee565b9050806001600160a01b0316836001600160a01b03161415610c455760405162461bcd60e51b815260206004820152602160248201527f4552433732313a20617070726f76616c20746f2063757272656e74206f776e6560448201527f72000000000000000000000000000000000000000000000000000000000000006064820152608401610b8b565b336001600160a01b0382161480610c615750610c61813361098d565b610cd35760405162461bcd60e51b815260206004820152603860248201527f4552433732313a20617070726f76652063616c6c6572206973206e6f74206f7760448201527f6e6572206e6f7220617070726f76656420666f7220616c6c00000000000000006064820152608401610b8b565b610cdd8383612822565b505050565b600a546001600160a01b03163314610d3c5760405162461bcd60e51b815260206004820181905260248201527f4f776e61626c653a2063616c6c6572206973206e6f7420746865206f776e65726044820152606401610b8b565b816005811115610d8e5760405162461bcd60e51b815260206004820152601460248201527f4578636565642050657220547874206c696d69740000000000000000000000006044820152606401610b8b565b6001600160a01b038216610de45760405162461bcd60e51b815260206004820152601560248201527f4e554c4c20416464726573732050726f766964656400000000000000000000006044820152606401610b8b565b601983600f54610df49190613d3a565b1115610e685760405162461bcd60e51b815260206004820152602260248201527f4d696e74696e672077696c6c206578636565642050726553656564207375707060448201527f6c790000000000000000000000000000000000000000000000000000000000006064820152608401610b8b565b60005b838161ffff161015610eb757610e8f83600f546001610e8a9190613d3a565b61289d565b600f8054906000610e9f83613e95565b91905055508080610eaf90613e73565b915050610e6b565b50816001600160a01b03167ff2157a4cb64d72e51384d316b203faab7fe03f978314cf2e325a8d1fdb09077d84604051610ef391815260200190565b60405180910390a2505050565b600a546001600160a01b03163314610f5a5760405162461bcd60e51b815260206004820181905260248201527f4f776e61626c653a2063616c6c6572206973206e6f7420746865206f776e65726044820152606401610b8b565b600081118015610f6b575060038111155b610fb75760405162461bcd60e51b815260206004820152600d60248201527f496e76616c696420526f756e64000000000000000000000000000000000000006044820152606401610b8b565b600081815260116020526040902060010154600854101561101a5760405162461bcd60e51b815260206004820152601960248201527f50726576696f757320526f756e6420696e636f6d706c657465000000000000006044820152606401610b8b565b6001811115611056576000601181611033600185613dd0565b81526020810191909152604001600020600601805460ff19169115159190911790555b6000818152601160205260409020600601805460ff19166001179055601255565b61108133826128b7565b6110f35760405162461bcd60e51b815260206004820152603160248201527f4552433732313a207472616e736665722063616c6c6572206973206e6f74206f60448201527f776e6572206e6f7220617070726f7665640000000000000000000000000000006064820152608401610b8b565b610cdd8383836129bf565b600061110983611665565b821061117d5760405162461bcd60e51b815260206004820152602b60248201527f455243373231456e756d657261626c653a206f776e657220696e646578206f7560448201527f74206f6620626f756e64730000000000000000000000000000000000000000006064820152608401610b8b565b506001600160a01b03919091166000908152600660209081526040808320938352929052205490565b600d80546111b390613e38565b80601f01602080910402602001604051908101604052809291908181526020018280546111df90613e38565b801561122c5780601f106112015761010080835404028352916020019161122c565b820191906000526020600020905b81548152906001019060200180831161120f57829003601f168201915b505050505081565b600a546001600160a01b0316331461128e5760405162461bcd60e51b815260206004820181905260248201527f4f776e61626c653a2063616c6c6572206973206e6f7420746865206f776e65726044820152606401610b8b565b600b5460405160009182916001600160a01b039091169047908381818185875af1925050503d80600081146112df576040519150601f19603f3d011682016040523d82523d6000602084013e6112e4565b606091505b5091509150816113365760405162461bcd60e51b815260206004820152601860248201527f4661696c656420746f20776974686472617720457468657200000000000000006044820152606401610b8b565b5050565b610cdd83838360405180602001604052806000815250611f2e565b600061136060085490565b82106113d45760405162461bcd60e51b815260206004820152602c60248201527f455243373231456e756d657261626c653a20676c6f62616c20696e646578206f60448201527f7574206f6620626f756e647300000000000000000000000000000000000000006064820152608401610b8b565b600882815481106113f557634e487b7160e01b600052603260045260246000fd5b90600052602060002001549050919050565b600a546001600160a01b031633146114615760405162461bcd60e51b815260206004820181905260248201527f4f776e61626c653a2063616c6c6572206973206e6f7420746865206f776e65726044820152606401610b8b565b805161133690600e9060208401906137fa565b600a546001600160a01b031633146114ce5760405162461bcd60e51b815260206004820181905260248201527f4f776e61626c653a2063616c6c6572206973206e6f7420746865206f776e65726044820152606401610b8b565b805161133690600d9060208401906137fa565b6114eb3382612ba4565b50565b6000818152600260205260408120546001600160a01b031680610a6d5760405162461bcd60e51b815260206004820152602960248201527f4552433732313a206f776e657220717565727920666f72206e6f6e657869737460448201527f656e7420746f6b656e00000000000000000000000000000000000000000000006064820152608401610b8b565b600a546001600160a01b031633146115d35760405162461bcd60e51b815260206004820181905260248201527f4f776e61626c653a2063616c6c6572206973206e6f7420746865206f776e65726044820152606401610b8b565b6001600160a01b0381166116295760405162461bcd60e51b815260206004820152601560248201527f4e554c4c20416464726573732050726f766964656400000000000000000000006044820152606401610b8b565b600b805473ffffffffffffffffffffffffffffffffffffffff19166001600160a01b0392909216919091179055565b600e80546111b390613e38565b60006001600160a01b0382166116e35760405162461bcd60e51b815260206004820152602a60248201527f4552433732313a2062616c616e636520717565727920666f7220746865207a6560448201527f726f2061646472657373000000000000000000000000000000000000000000006064820152608401610b8b565b506001600160a01b031660009081526003602052604090205490565b600a546001600160a01b031633146117595760405162461bcd60e51b815260206004820181905260248201527f4f776e61626c653a2063616c6c6572206973206e6f7420746865206f776e65726044820152606401610b8b565b6117636000612c40565b565b60004382106117dc5760405162461bcd60e51b815260206004820152602960248201527f674e757369633a3a6765745072696f72566f7465733a206e6f7420796574206460448201527f657465726d696e656400000000000000000000000000000000000000000000006064820152608401610b8b565b6001600160a01b03831660009081526016602052604090205463ffffffff168061180a576000915050610a6d565b6001600160a01b0384166000908152601560205260408120849161182f600185613de7565b63ffffffff16815260208101919091526040016000205411611895576001600160a01b03841660009081526015602052604081209061186f600184613de7565b63ffffffff1663ffffffff16815260200190815260200160002060010154915050610a6d565b6001600160a01b03841660009081526015602090815260408083208380529091529020548310156118ca576000915050610a6d565b6000806118d8600184613de7565b90505b8163ffffffff168163ffffffff16111561199657600060026118fd8484613de7565b6119079190613d8e565b6119119083613de7565b6001600160a01b038816600090815260156020908152604080832063ffffffff8516845282529182902082518084019093528054808452600190910154918301919091529192509087141561197057602001519450610a6d9350505050565b80518711156119815781935061198f565b61198c600183613de7565b92505b50506118db565b506001600160a01b038516600090815260156020908152604080832063ffffffff9094168352929052206001015491505092915050565b806005811115611a1f5760405162461bcd60e51b815260206004820152601460248201527f4578636565642050657220547874206c696d69740000000000000000000000006044820152606401610b8b565b81606481611a2c33611665565b611a369190613d3a565b1115611a845760405162461bcd60e51b815260206004820152601860248201527f457863656564205065722041646472657373206c696d697400000000000000006044820152606401610b8b565b60125460009081526011602052604090206006015460ff16611ae85760405162461bcd60e51b815260206004820152601860248201527f46756e64696e6720526f756e64206e6f742061637469766500000000000000006044820152606401610b8b565b6012546000908152601160205260409020600281015460039091015410611b515760405162461bcd60e51b815260206004820152601c60248201527f416c6c206d696e74656420666f722063757272656e7420726f756e64000000006044820152606401610b8b565b60125460009081526011602052604090206002810154600390910154611b78908590613d3a565b1115611bec5760405162461bcd60e51b815260206004820152602560248201527f4d696e74696e6720776f756c642065786365656420737570706c7920666f722060448201527f726f756e640000000000000000000000000000000000000000000000000000006064820152608401610b8b565b6103e883601054611bfd9190613d3a565b1115611c715760405162461bcd60e51b815260206004820152602860248201527f4d696e74696e6720776f756c6420657863656564207374616765312773206d6160448201527f7820737570706c790000000000000000000000000000000000000000000000006064820152608401610b8b565b3483600c54611c809190613db1565b14611ccd5760405162461bcd60e51b815260206004820152601760248201527f496e73756666696369656e742046756e64732053656e740000000000000000006044820152606401610b8b565b60005b838161ffff161015611d34576012546000908152601160205260408120600301805491611cfc83613e95565b909155505060108054906000611d1183613e95565b9190505550611d223360105461289d565b80611d2c81613e73565b915050611cd0565b50601254604080518581523460208201529081019190915233907f4dbf92a91d1e82c46de1a50d0502eeeef614ee76c6c07f8ca2c55828e11a8cec90606001610ef3565b600a546001600160a01b03163314611dd25760405162461bcd60e51b815260206004820181905260248201527f4f776e61626c653a2063616c6c6572206973206e6f7420746865206f776e65726044820152606401610b8b565b60008111611e225760405162461bcd60e51b815260206004820152601560248201527f50726963652063616e206e6f74206265207a65726f00000000000000000000006044820152606401610b8b565b600c55565b606060018054610a8290613e38565b611336338383612c9f565b600a546001600160a01b03163314611e9b5760405162461bcd60e51b815260206004820181905260248201527f4f776e61626c653a2063616c6c6572206973206e6f7420746865206f776e65726044820152606401610b8b565b6012546000908152601160205260409020600601805460ff19169055565b6001600160a01b03811660009081526016602052604081205463ffffffff1680611ee4576000611f27565b6001600160a01b038316600090815260156020526040812090611f08600184613de7565b63ffffffff1663ffffffff168152602001908152602001600020600101545b9392505050565b611f3833836128b7565b611faa5760405162461bcd60e51b815260206004820152603160248201527f4552433732313a207472616e736665722063616c6c6572206973206e6f74206f60448201527f776e6572206e6f7220617070726f7665640000000000000000000000000000006064820152608401610b8b565b611fb684848484612d6e565b50505050565b60007f8cad95687ba82c2ce50e74f7b754645e5117c3a5bec8151c0726d5857980a866611fe7610a73565b80519060200120611ff54690565b60408051602080820195909552808201939093526060830191909152306080808401919091528151808403909101815260a0830182528051908401207fe48329057bfd03d55e49b547132e39cffd9c1820ad7b9d4c5307691425d15adf60c08401526001600160a01b038b1660e084015261010083018a90526101208084018a9052825180850390910181526101408401909252815191909301207f1901000000000000000000000000000000000000000000000000000000000000610160830152610162820183905261018282018190529192506000906101a20160408051601f198184030181528282528051602091820120600080855291840180845281905260ff8a169284019290925260608301889052608083018790529092509060019060a0016020604051602081039080840390855afa15801561213c573d6000803e3d6000fd5b5050604051601f1901519150506001600160a01b0381166121c55760405162461bcd60e51b815260206004820152602860248201527f674e757369633a3a64656c656761746542795369673a20696e76616c6964207360448201527f69676e61747572650000000000000000000000000000000000000000000000006064820152608401610b8b565b6001600160a01b03811660009081526013602052604081208054916121e983613e95565b9190505589146122605760405162461bcd60e51b8152602060048201526024808201527f674e757369633a3a64656c656761746542795369673a20696e76616c6964206e60448201527f6f6e6365000000000000000000000000000000000000000000000000000000006064820152608401610b8b565b874211156122d65760405162461bcd60e51b815260206004820152602860248201527f674e757369633a3a64656c656761746542795369673a207369676e617475726560448201527f20657870697265640000000000000000000000000000000000000000000000006064820152608401610b8b565b6122e0818b612ba4565b505050505b505050505050565b6000818152600260205260409020546060906001600160a01b03166123545760405162461bcd60e51b815260206004820152601560248201527f546f6b656e20646f6573206e6f742065786973747300000000000000000000006044820152606401610b8b565b6000600e805461236390613e38565b9050116123fa57600d805461237790613e38565b80601f01602080910402602001604051908101604052809291908181526020018280546123a390613e38565b80156123f05780601f106123c5576101008083540402835291602001916123f0565b820191906000526020600020905b8154815290600101906020018083116123d357829003601f168201915b5050505050610a6d565b600e61240583612df7565b604051602001612416929190613c19565b60405160208183030381529060405292915050565b600a546001600160a01b031633146124855760405162461bcd60e51b815260206004820181905260248201527f4f776e61626c653a2063616c6c6572206973206e6f7420746865206f776e65726044820152606401610b8b565b60125460009081526011602052604090206004810154600590910154106124ee5760405162461bcd60e51b815260206004820152601d60248201527f416c6c20436c61696d656420666f722063757272656e7420726f756e640000006044820152606401610b8b565b60125460009081526011602052604090206004810154600590910154612515908390613d3a565b11156125895760405162461bcd60e51b815260206004820152602360248201527f436c61696d20776f756c642065786365656420737570706c7920666f7220726f60448201527f756e6400000000000000000000000000000000000000000000000000000000006064820152608401610b8b565b6127108161259660085490565b6125a09190613d3a565b11156125ee5760405162461bcd60e51b815260206004820152601f60248201527f4d696e74696e6720776f756c6420657863656564206d617820737570706c79006044820152606401610b8b565b60005b818161ffff16101561266257601254600090815260116020526040812060050180549161261d83613e95565b90915550506010805490600061263283613e95565b9091555050600b54601054612650916001600160a01b03169061289d565b8061265a81613e73565b9150506125f1565b50600b546040518281526001600160a01b03909116907f0dafe5fda3d3c12f5534ba82c4393aaf90fe68d6198d310d71a7d9a6ea3cc1e09060200160405180910390a250565b600a546001600160a01b031633146127025760405162461bcd60e51b815260206004820181905260248201527f4f776e61626c653a2063616c6c6572206973206e6f7420746865206f776e65726044820152606401610b8b565b6001600160a01b03811661277e5760405162461bcd60e51b815260206004820152602660248201527f4f776e61626c653a206e6577206f776e657220697320746865207a65726f206160448201527f64647265737300000000000000000000000000000000000000000000000000006064820152608401610b8b565b6114eb81612c40565b60006001600160e01b031982167f80ac58cd0000000000000000000000000000000000000000000000000000000014806127ea57506001600160e01b031982167f5b5e139f00000000000000000000000000000000000000000000000000000000145b80610a6d57507f01ffc9a7000000000000000000000000000000000000000000000000000000006001600160e01b0319831614610a6d565b6000818152600460205260409020805473ffffffffffffffffffffffffffffffffffffffff19166001600160a01b0384169081179091558190612864826114ee565b6001600160a01b03167f8c5be1e5ebec7d5bd14f71427d1e84f3dd0314c0f7b2291e5b200ac8c7c3b92560405160405180910390a45050565b611336828260405180602001604052806000815250612f45565b6000818152600260205260408120546001600160a01b03166129415760405162461bcd60e51b815260206004820152602c60248201527f4552433732313a206f70657261746f7220717565727920666f72206e6f6e657860448201527f697374656e7420746f6b656e00000000000000000000000000000000000000006064820152608401610b8b565b600061294c836114ee565b9050806001600160a01b0316846001600160a01b031614806129875750836001600160a01b031661297c84610b05565b6001600160a01b0316145b806129b757506001600160a01b0380821660009081526005602090815260408083209388168352929052205460ff165b949350505050565b826001600160a01b03166129d2826114ee565b6001600160a01b031614612a4e5760405162461bcd60e51b815260206004820152602960248201527f4552433732313a207472616e73666572206f6620746f6b656e2074686174206960448201527f73206e6f74206f776e00000000000000000000000000000000000000000000006064820152608401610b8b565b6001600160a01b038216612ac95760405162461bcd60e51b8152602060048201526024808201527f4552433732313a207472616e7366657220746f20746865207a65726f2061646460448201527f72657373000000000000000000000000000000000000000000000000000000006064820152608401610b8b565b612ad4838383612fce565b612adf600082612822565b6001600160a01b0383166000908152600360205260408120805460019290612b08908490613dd0565b90915550506001600160a01b0382166000908152600360205260408120805460019290612b36908490613d3a565b9091555050600081815260026020526040808220805473ffffffffffffffffffffffffffffffffffffffff19166001600160a01b0386811691821790925591518493918716917fddf252ad1be2c89b69c2b068fc378daa952ba7f163c4a11628f55a4df523b3ef91a4505050565b6001600160a01b0380831660009081526014602052604081205490911690612bcb84611665565b6001600160a01b03858116600081815260146020526040808220805473ffffffffffffffffffffffffffffffffffffffff1916898616908117909155905194955093928616927f3134e8a2e6d97e929a7e54011ea5485d7d196dd5f0ba4d4ef95803e8e3fc257f9190a4611fb6828483613008565b600a80546001600160a01b0383811673ffffffffffffffffffffffffffffffffffffffff19831681179093556040519116919082907f8be0079c531659141344cd1fd0a4f28419497f9722a3daafe3b4186f6b6457e090600090a35050565b816001600160a01b0316836001600160a01b03161415612d015760405162461bcd60e51b815260206004820152601960248201527f4552433732313a20617070726f766520746f2063616c6c6572000000000000006044820152606401610b8b565b6001600160a01b03838116600081815260056020908152604080832094871680845294825291829020805460ff191686151590811790915591519182527f17307eab39ab6107e8899845ad3d59bd9653f200f220920489ca2b5937696c31910160405180910390a3505050565b612d798484846129bf565b612d8584848484613167565b611fb65760405162461bcd60e51b815260206004820152603260248201527f4552433732313a207472616e7366657220746f206e6f6e20455243373231526560448201527f63656976657220696d706c656d656e74657200000000000000000000000000006064820152608401610b8b565b606081612e3757505060408051808201909152600181527f3000000000000000000000000000000000000000000000000000000000000000602082015290565b8160005b8115612e615780612e4b81613e95565b9150612e5a9050600a83613d7a565b9150612e3b565b60008167ffffffffffffffff811115612e8a57634e487b7160e01b600052604160045260246000fd5b6040519080825280601f01601f191660200182016040528015612eb4576020820181803683370190505b5090505b84156129b757612ec9600183613dd0565b9150612ed6600a86613eb0565b612ee1906030613d3a565b60f81b818381518110612f0457634e487b7160e01b600052603260045260246000fd5b60200101907effffffffffffffffffffffffffffffffffffffffffffffffffffffffffffff1916908160001a905350612f3e600a86613d7a565b9450612eb8565b612f4f83836132ca565b612f5c6000848484613167565b610cdd5760405162461bcd60e51b815260206004820152603260248201527f4552433732313a207472616e7366657220746f206e6f6e20455243373231526560448201527f63656976657220696d706c656d656e74657200000000000000000000000000006064820152608401610b8b565b612fd9838383613425565b6001600160a01b03808416600090815260146020526040808220548584168352912054610cdd92918216911660015b816001600160a01b0316836001600160a01b03161415801561302a5750600081115b15610cdd576001600160a01b038316156130cd576001600160a01b03831660009081526016602052604081205463ffffffff16908161306a5760006130ad565b6001600160a01b03851660009081526015602052604081209061308e600185613de7565b63ffffffff1663ffffffff168152602001908152602001600020600101545b905060006130bb8483613dd0565b90506130c9868484846134dd565b5050505b6001600160a01b03821615610cdd576001600160a01b03821660009081526016602052604081205463ffffffff16908161310857600061314b565b6001600160a01b03841660009081526015602052604081209061312c600185613de7565b63ffffffff1663ffffffff168152602001908152602001600020600101545b905060006131598483613d3a565b90506122e5858484846134dd565b60006001600160a01b0384163b156132bf57604051630a85bd0160e11b81526001600160a01b0385169063150b7a02906131ab903390899088908890600401613ceb565b602060405180830381600087803b1580156131c557600080fd5b505af19250505080156131f5575060408051601f3d908101601f191682019092526131f291810190613b35565b60015b6132a5573d808015613223576040519150601f19603f3d011682016040523d82523d6000602084013e613228565b606091505b50805161329d5760405162461bcd60e51b815260206004820152603260248201527f4552433732313a207472616e7366657220746f206e6f6e20455243373231526560448201527f63656976657220696d706c656d656e74657200000000000000000000000000006064820152608401610b8b565b805181602001fd5b6001600160e01b031916630a85bd0160e11b1490506129b7565b506001949350505050565b6001600160a01b0382166133205760405162461bcd60e51b815260206004820181905260248201527f4552433732313a206d696e7420746f20746865207a65726f20616464726573736044820152606401610b8b565b6000818152600260205260409020546001600160a01b0316156133855760405162461bcd60e51b815260206004820152601c60248201527f4552433732313a20746f6b656e20616c7265616479206d696e746564000000006044820152606401610b8b565b61339160008383612fce565b6001600160a01b03821660009081526003602052604081208054600192906133ba908490613d3a565b9091555050600081815260026020526040808220805473ffffffffffffffffffffffffffffffffffffffff19166001600160a01b03861690811790915590518392907fddf252ad1be2c89b69c2b068fc378daa952ba7f163c4a11628f55a4df523b3ef908290a45050565b6001600160a01b0383166134805761347b81600880546000838152600960205260408120829055600182018355919091527ff3f7a9fe364faab93b216da50a3214154f22a0a2b415b23a84c8169e8b636ee30155565b6134a3565b816001600160a01b0316836001600160a01b0316146134a3576134a38382613640565b6001600160a01b0382166134ba57610cdd816136dd565b826001600160a01b0316826001600160a01b031614610cdd57610cdd82826137b6565b60008363ffffffff1611801561352c57506001600160a01b03841660009081526015602052604081204391613513600187613de7565b63ffffffff168152602081019190915260400160002054145b15613575576001600160a01b03841660009081526015602052604081208291613556600187613de7565b63ffffffff1681526020810191909152604001600020600101556135f6565b60408051808201825243815260208082018481526001600160a01b03881660009081526015835284812063ffffffff891682529092529290209051815590516001918201556135c5908490613d52565b6001600160a01b0385166000908152601660205260409020805463ffffffff191663ffffffff929092169190911790555b60408051838152602081018390526001600160a01b038616917fdec2bacdd2f05b59de34da9b523dff8be42e5e38e818c82fdb0bae774387a724910160405180910390a250505050565b6000600161364d84611665565b6136579190613dd0565b6000838152600760205260409020549091508082146136aa576001600160a01b03841660009081526006602090815260408083208584528252808320548484528184208190558352600790915290208190555b5060009182526007602090815260408084208490556001600160a01b039094168352600681528383209183525290812055565b6008546000906136ef90600190613dd0565b6000838152600960205260408120546008805493945090928490811061372557634e487b7160e01b600052603260045260246000fd5b90600052602060002001549050806008838154811061375457634e487b7160e01b600052603260045260246000fd5b600091825260208083209091019290925582815260099091526040808220849055858252812055600880548061379a57634e487b7160e01b600052603160045260246000fd5b6001900381819060005260206000200160009055905550505050565b60006137c183611665565b6001600160a01b039093166000908152600660209081526040808320868452825280832085905593825260079052919091209190915550565b82805461380690613e38565b90600052602060002090601f016020900481019282613828576000855561386e565b82601f1061384157805160ff191683800117855561386e565b8280016001018555821561386e579182015b8281111561386e578251825591602001919060010190613853565b5061387a92915061387e565b5090565b5b8082111561387a576000815560010161387f565b600067ffffffffffffffff808411156138ae576138ae613ef0565b604051601f8501601f19908116603f011681019082821181831017156138d6576138d6613ef0565b816040528093508581528686860111156138ef57600080fd5b858560208301376000602087830101525050509392505050565b80356001600160a01b038116811461392057600080fd5b919050565b600060208284031215613936578081fd5b611f2782613909565b60008060408385031215613951578081fd5b61395a83613909565b915061396860208401613909565b90509250929050565b600080600060608486031215613985578081fd5b61398e84613909565b925061399c60208501613909565b9150604084013590509250925092565b600080600080608085870312156139c1578081fd5b6139ca85613909565b93506139d860208601613909565b925060408501359150606085013567ffffffffffffffff8111156139fa578182fd5b8501601f81018713613a0a578182fd5b613a1987823560208401613893565b91505092959194509250565b60008060408385031215613a37578182fd5b613a4083613909565b915060208301358015158114613a54578182fd5b809150509250929050565b60008060408385031215613a71578182fd5b613a7a83613909565b946020939093013593505050565b60008060008060008060c08789031215613aa0578182fd5b613aa987613909565b95506020870135945060408701359350606087013560ff81168114613acc578283fd5b9598949750929560808101359460a0909101359350915050565b60008060408385031215613af8578182fd5b613b0183613909565b9150602083013563ffffffff81168114613a54578182fd5b600060208284031215613b2a578081fd5b8135611f2781613f06565b600060208284031215613b46578081fd5b8151611f2781613f06565b600060208284031215613b62578081fd5b813567ffffffffffffffff811115613b78578182fd5b8201601f81018413613b88578182fd5b6129b784823560208401613893565b600060208284031215613ba8578081fd5b5035919050565b60008060408385031215613bc1578182fd5b8235915061396860208401613909565b60008151808452613be9816020860160208601613e0c565b601f01601f19169290920160200192915050565b60008151613c0f818560208601613e0c565b9290920192915050565b600080845482600182811c915080831680613c3557607f831692505b6020808410821415613c5557634e487b7160e01b87526022600452602487fd5b818015613c695760018114613c7a57613ca6565b60ff19861689528489019650613ca6565b60008b815260209020885b86811015613c9e5781548b820152908501908301613c85565b505084890196505b505050505050613ce2613cb98286613bfd565b7f2e6a736f6e000000000000000000000000000000000000000000000000000000815260050190565b95945050505050565b60006001600160a01b03808716835280861660208401525083604083015260806060830152613d1d6080830184613bd1565b9695505050505050565b602081526000611f276020830184613bd1565b60008219821115613d4d57613d4d613ec4565b500190565b600063ffffffff808316818516808303821115613d7157613d71613ec4565b01949350505050565b600082613d8957613d89613eda565b500490565b600063ffffffff80841680613da557613da5613eda565b92169190910492915050565b6000816000190483118215151615613dcb57613dcb613ec4565b500290565b600082821015613de257613de2613ec4565b500390565b600063ffffffff83811690831681811015613e0457613e04613ec4565b039392505050565b60005b83811015613e27578181015183820152602001613e0f565b83811115611fb65750506000910152565b600181811c90821680613e4c57607f821691505b60208210811415613e6d57634e487b7160e01b600052602260045260246000fd5b50919050565b600061ffff80831681811415613e8b57613e8b613ec4565b6001019392505050565b6000600019821415613ea957613ea9613ec4565b5060010190565b600082613ebf57613ebf613eda565b500690565b634e487b7160e01b600052601160045260246000fd5b634e487b7160e01b600052601260045260246000fd5b634e487b7160e01b600052604160045260246000fd5b6001600160e01b0319811681146114eb57600080fdfea164736f6c6343000804000a",
  "linkReferences": {},
  "deployedLinkReferences": {}
}